{
  "address": "0x4cf8A071dbFc50d05E9e80dE9c44d1698B3DE46d",
  "abi": [
    {
      "inputs": [
        {
          "internalType": "address",
          "name": "_vrfCoordinatorV2",
          "type": "address"
        },
        {
          "internalType": "uint64",
          "name": "_subscriptionId",
          "type": "uint64"
        },
        {
          "internalType": "uint32",
          "name": "_callbackGasLimit",
          "type": "uint32"
        },
        {
          "internalType": "bytes32",
          "name": "_gasLane",
          "type": "bytes32"
        }
      ],
      "stateMutability": "nonpayable",
      "type": "constructor"
    },
    {
      "inputs": [
        {
          "internalType": "address",
          "name": "target",
          "type": "address"
        }
      ],
      "name": "AddressEmptyCode",
      "type": "error"
    },
    {
      "inputs": [
        {
          "internalType": "address",
          "name": "implementation",
          "type": "address"
        }
      ],
      "name": "ERC1967InvalidImplementation",
      "type": "error"
    },
    {
      "inputs": [],
      "name": "ERC1967NonPayable",
      "type": "error"
    },
    {
      "inputs": [],
      "name": "ERC721EnumerableForbiddenBatchMint",
      "type": "error"
    },
    {
      "inputs": [
        {
          "internalType": "address",
          "name": "sender",
          "type": "address"
        },
        {
          "internalType": "uint256",
          "name": "tokenId",
          "type": "uint256"
        },
        {
          "internalType": "address",
          "name": "owner",
          "type": "address"
        }
      ],
      "name": "ERC721IncorrectOwner",
      "type": "error"
    },
    {
      "inputs": [
        {
          "internalType": "address",
          "name": "operator",
          "type": "address"
        },
        {
          "internalType": "uint256",
          "name": "tokenId",
          "type": "uint256"
        }
      ],
      "name": "ERC721InsufficientApproval",
      "type": "error"
    },
    {
      "inputs": [
        {
          "internalType": "address",
          "name": "approver",
          "type": "address"
        }
      ],
      "name": "ERC721InvalidApprover",
      "type": "error"
    },
    {
      "inputs": [
        {
          "internalType": "address",
          "name": "operator",
          "type": "address"
        }
      ],
      "name": "ERC721InvalidOperator",
      "type": "error"
    },
    {
      "inputs": [
        {
          "internalType": "address",
          "name": "owner",
          "type": "address"
        }
      ],
      "name": "ERC721InvalidOwner",
      "type": "error"
    },
    {
      "inputs": [
        {
          "internalType": "address",
          "name": "receiver",
          "type": "address"
        }
      ],
      "name": "ERC721InvalidReceiver",
      "type": "error"
    },
    {
      "inputs": [
        {
          "internalType": "address",
          "name": "sender",
          "type": "address"
        }
      ],
      "name": "ERC721InvalidSender",
      "type": "error"
    },
    {
      "inputs": [
        {
          "internalType": "uint256",
          "name": "tokenId",
          "type": "uint256"
        }
      ],
      "name": "ERC721NonexistentToken",
      "type": "error"
    },
    {
      "inputs": [
        {
          "internalType": "address",
          "name": "owner",
          "type": "address"
        },
        {
          "internalType": "uint256",
          "name": "index",
          "type": "uint256"
        }
      ],
      "name": "ERC721OutOfBoundsIndex",
      "type": "error"
    },
    {
      "inputs": [],
      "name": "FailedInnerCall",
      "type": "error"
    },
    {
      "inputs": [],
      "name": "InvalidInitialization",
      "type": "error"
    },
    {
      "inputs": [],
      "name": "NotInitializing",
      "type": "error"
    },
    {
      "inputs": [
        {
          "internalType": "address",
          "name": "have",
          "type": "address"
        },
        {
          "internalType": "address",
          "name": "want",
          "type": "address"
        }
      ],
      "name": "OnlyCoordinatorCanFulfill",
      "type": "error"
    },
    {
      "inputs": [
        {
          "internalType": "address",
          "name": "owner",
          "type": "address"
        }
      ],
      "name": "OwnableInvalidOwner",
      "type": "error"
    },
    {
      "inputs": [
        {
          "internalType": "address",
          "name": "account",
          "type": "address"
        }
      ],
      "name": "OwnableUnauthorizedAccount",
      "type": "error"
    },
    {
      "inputs": [],
      "name": "UUPSUnauthorizedCallContext",
      "type": "error"
    },
    {
      "inputs": [
        {
          "internalType": "bytes32",
          "name": "slot",
          "type": "bytes32"
        }
      ],
      "name": "UUPSUnsupportedProxiableUUID",
      "type": "error"
    },
    {
      "anonymous": false,
      "inputs": [
        {
          "indexed": true,
          "internalType": "address",
          "name": "owner",
          "type": "address"
        },
        {
          "indexed": true,
          "internalType": "address",
          "name": "approved",
          "type": "address"
        },
        {
          "indexed": true,
          "internalType": "uint256",
          "name": "tokenId",
          "type": "uint256"
        }
      ],
      "name": "Approval",
      "type": "event"
    },
    {
      "anonymous": false,
      "inputs": [
        {
          "indexed": true,
          "internalType": "address",
          "name": "owner",
          "type": "address"
        },
        {
          "indexed": true,
          "internalType": "address",
          "name": "operator",
          "type": "address"
        },
        {
          "indexed": false,
          "internalType": "bool",
          "name": "approved",
          "type": "bool"
        }
      ],
      "name": "ApprovalForAll",
      "type": "event"
    },
    {
      "anonymous": false,
      "inputs": [
        {
          "indexed": false,
          "internalType": "uint64",
          "name": "version",
          "type": "uint64"
        }
      ],
      "name": "Initialized",
      "type": "event"
    },
    {
      "anonymous": false,
      "inputs": [
        {
          "indexed": true,
          "internalType": "address",
          "name": "minter",
          "type": "address"
        },
        {
          "indexed": true,
          "internalType": "uint256",
          "name": "tokenId",
          "type": "uint256"
        },
        {
          "indexed": true,
          "internalType": "uint256",
          "name": "requestId",
          "type": "uint256"
        }
      ],
      "name": "NftMinted",
      "type": "event"
    },
    {
      "anonymous": false,
      "inputs": [
        {
          "indexed": true,
          "internalType": "address",
          "name": "minter",
          "type": "address"
        },
        {
          "indexed": true,
          "internalType": "uint256",
          "name": "requestId",
          "type": "uint256"
        }
      ],
      "name": "NftRequested",
      "type": "event"
    },
    {
      "anonymous": false,
      "inputs": [
        {
          "indexed": true,
          "internalType": "address",
          "name": "previousOwner",
          "type": "address"
        },
        {
          "indexed": true,
          "internalType": "address",
          "name": "newOwner",
          "type": "address"
        }
      ],
      "name": "OwnershipTransferred",
      "type": "event"
    },
    {
      "anonymous": false,
      "inputs": [
        {
          "indexed": true,
          "internalType": "address",
          "name": "from",
          "type": "address"
        },
        {
          "indexed": true,
          "internalType": "address",
          "name": "to",
          "type": "address"
        },
        {
          "indexed": true,
          "internalType": "uint256",
          "name": "tokenId",
          "type": "uint256"
        }
      ],
      "name": "Transfer",
      "type": "event"
    },
    {
      "anonymous": false,
      "inputs": [
        {
          "indexed": true,
          "internalType": "address",
          "name": "implementation",
          "type": "address"
        }
      ],
      "name": "Upgraded",
      "type": "event"
    },
    {
      "anonymous": false,
      "inputs": [
        {
          "indexed": true,
          "internalType": "address",
          "name": "addr",
          "type": "address"
        },
        {
          "indexed": false,
          "internalType": "uint256",
          "name": "amount",
          "type": "uint256"
        }
      ],
      "name": "Withdraw",
      "type": "event"
    },
    {
      "inputs": [],
      "name": "UPGRADE_INTERFACE_VERSION",
      "outputs": [
        {
          "internalType": "string",
          "name": "",
          "type": "string"
        }
      ],
      "stateMutability": "view",
      "type": "function"
    },
    {
      "inputs": [
        {
          "internalType": "address",
          "name": "to",
          "type": "address"
        },
        {
          "internalType": "uint256",
          "name": "tokenId",
          "type": "uint256"
        }
      ],
      "name": "approve",
      "outputs": [],
      "stateMutability": "nonpayable",
      "type": "function"
    },
    {
      "inputs": [
        {
          "internalType": "address",
          "name": "owner",
          "type": "address"
        }
      ],
      "name": "balanceOf",
      "outputs": [
        {
          "internalType": "uint256",
          "name": "",
          "type": "uint256"
        }
      ],
      "stateMutability": "view",
      "type": "function"
    },
    {
      "inputs": [],
      "name": "curve",
      "outputs": [
        {
          "internalType": "uint256",
          "name": "",
          "type": "uint256"
        }
      ],
      "stateMutability": "view",
      "type": "function"
    },
    {
      "inputs": [
        {
          "internalType": "uint256",
          "name": "tokenId",
          "type": "uint256"
        }
      ],
      "name": "getApproved",
      "outputs": [
        {
          "internalType": "address",
          "name": "",
          "type": "address"
        }
      ],
      "stateMutability": "view",
      "type": "function"
    },
    {
      "inputs": [],
      "name": "initialize",
      "outputs": [],
      "stateMutability": "nonpayable",
      "type": "function"
    },
    {
      "inputs": [
        {
          "internalType": "address",
          "name": "owner",
          "type": "address"
        },
        {
          "internalType": "address",
          "name": "operator",
          "type": "address"
        }
      ],
      "name": "isApprovedForAll",
      "outputs": [
        {
          "internalType": "bool",
          "name": "",
          "type": "bool"
        }
      ],
      "stateMutability": "view",
      "type": "function"
    },
    {
      "inputs": [],
      "name": "limit",
      "outputs": [
        {
          "internalType": "uint256",
          "name": "",
          "type": "uint256"
        }
      ],
      "stateMutability": "view",
      "type": "function"
    },
    {
      "inputs": [],
      "name": "mintItem",
      "outputs": [
        {
          "internalType": "uint256",
          "name": "",
          "type": "uint256"
        }
      ],
      "stateMutability": "payable",
      "type": "function"
    },
    {
      "inputs": [],
      "name": "name",
      "outputs": [
        {
          "internalType": "string",
          "name": "",
          "type": "string"
        }
      ],
      "stateMutability": "view",
      "type": "function"
    },
    {
      "inputs": [],
      "name": "owner",
      "outputs": [
        {
          "internalType": "address",
          "name": "",
          "type": "address"
        }
      ],
      "stateMutability": "view",
      "type": "function"
    },
    {
      "inputs": [
        {
          "internalType": "uint256",
          "name": "tokenId",
          "type": "uint256"
        }
      ],
      "name": "ownerOf",
      "outputs": [
        {
          "internalType": "address",
          "name": "",
          "type": "address"
        }
      ],
      "stateMutability": "view",
      "type": "function"
    },
    {
      "inputs": [],
      "name": "price",
      "outputs": [
        {
          "internalType": "uint256",
          "name": "",
          "type": "uint256"
        }
      ],
      "stateMutability": "view",
      "type": "function"
    },
    {
      "inputs": [],
      "name": "proxiableUUID",
      "outputs": [
        {
          "internalType": "bytes32",
          "name": "",
          "type": "bytes32"
        }
      ],
      "stateMutability": "view",
      "type": "function"
    },
    {
      "inputs": [
        {
          "internalType": "uint256",
          "name": "requestId",
          "type": "uint256"
        },
        {
          "internalType": "uint256[]",
          "name": "randomWords",
          "type": "uint256[]"
        }
      ],
      "name": "rawFulfillRandomWords",
      "outputs": [],
      "stateMutability": "nonpayable",
      "type": "function"
    },
    {
      "inputs": [],
      "name": "renounceOwnership",
      "outputs": [],
      "stateMutability": "nonpayable",
      "type": "function"
    },
    {
      "inputs": [
        {
          "internalType": "uint256",
          "name": "",
          "type": "uint256"
        }
      ],
      "name": "requestIdToTokenId",
      "outputs": [
        {
          "internalType": "uint256",
          "name": "",
          "type": "uint256"
        }
      ],
      "stateMutability": "view",
      "type": "function"
    },
    {
      "inputs": [
        {
          "internalType": "address",
          "name": "from",
          "type": "address"
        },
        {
          "internalType": "address",
          "name": "to",
          "type": "address"
        },
        {
          "internalType": "uint256",
          "name": "tokenId",
          "type": "uint256"
        }
      ],
      "name": "safeTransferFrom",
      "outputs": [],
      "stateMutability": "nonpayable",
      "type": "function"
    },
    {
      "inputs": [
        {
          "internalType": "address",
          "name": "from",
          "type": "address"
        },
        {
          "internalType": "address",
          "name": "to",
          "type": "address"
        },
        {
          "internalType": "uint256",
          "name": "tokenId",
          "type": "uint256"
        },
        {
          "internalType": "bytes",
          "name": "data",
          "type": "bytes"
        }
      ],
      "name": "safeTransferFrom",
      "outputs": [],
      "stateMutability": "nonpayable",
      "type": "function"
    },
    {
      "inputs": [
        {
          "internalType": "address",
          "name": "operator",
          "type": "address"
        },
        {
          "internalType": "bool",
          "name": "approved",
          "type": "bool"
        }
      ],
      "name": "setApprovalForAll",
      "outputs": [],
      "stateMutability": "nonpayable",
      "type": "function"
    },
    {
      "inputs": [
        {
          "internalType": "bool",
          "name": "_useVRF",
          "type": "bool"
        }
      ],
      "name": "setUseVRF",
      "outputs": [],
      "stateMutability": "nonpayable",
      "type": "function"
    },
    {
      "inputs": [
        {
          "internalType": "bytes4",
          "name": "interfaceId",
          "type": "bytes4"
        }
      ],
      "name": "supportsInterface",
      "outputs": [
        {
          "internalType": "bool",
          "name": "",
          "type": "bool"
        }
      ],
      "stateMutability": "view",
      "type": "function"
    },
    {
      "inputs": [],
      "name": "symbol",
      "outputs": [
        {
          "internalType": "string",
          "name": "",
          "type": "string"
        }
      ],
      "stateMutability": "view",
      "type": "function"
    },
    {
      "inputs": [
        {
          "internalType": "uint256",
          "name": "index",
          "type": "uint256"
        }
      ],
      "name": "tokenByIndex",
      "outputs": [
        {
          "internalType": "uint256",
          "name": "",
          "type": "uint256"
        }
      ],
      "stateMutability": "view",
      "type": "function"
    },
    {
      "inputs": [
        {
          "internalType": "address",
          "name": "owner",
          "type": "address"
        },
        {
          "internalType": "uint256",
          "name": "index",
          "type": "uint256"
        }
      ],
      "name": "tokenOfOwnerByIndex",
      "outputs": [
        {
          "internalType": "uint256",
          "name": "",
          "type": "uint256"
        }
      ],
      "stateMutability": "view",
      "type": "function"
    },
    {
      "inputs": [
        {
          "internalType": "uint256",
          "name": "id",
          "type": "uint256"
        }
      ],
      "name": "tokenURI",
      "outputs": [
        {
          "internalType": "string",
          "name": "",
          "type": "string"
        }
      ],
      "stateMutability": "view",
      "type": "function"
    },
    {
      "inputs": [],
      "name": "totalSupply",
      "outputs": [
        {
          "internalType": "uint256",
          "name": "",
          "type": "uint256"
        }
      ],
      "stateMutability": "view",
      "type": "function"
    },
    {
      "inputs": [
        {
          "internalType": "address",
          "name": "from",
          "type": "address"
        },
        {
          "internalType": "address",
          "name": "to",
          "type": "address"
        },
        {
          "internalType": "uint256",
          "name": "tokenId",
          "type": "uint256"
        }
      ],
      "name": "transferFrom",
      "outputs": [],
      "stateMutability": "nonpayable",
      "type": "function"
    },
    {
      "inputs": [
        {
          "internalType": "address",
          "name": "newOwner",
          "type": "address"
        }
      ],
      "name": "transferOwnership",
      "outputs": [],
      "stateMutability": "nonpayable",
      "type": "function"
    },
    {
      "inputs": [
        {
          "internalType": "address",
          "name": "newImplementation",
          "type": "address"
        },
        {
          "internalType": "bytes",
          "name": "data",
          "type": "bytes"
        }
      ],
      "name": "upgradeToAndCall",
      "outputs": [],
      "stateMutability": "payable",
      "type": "function"
    },
    {
      "inputs": [],
      "name": "useVRF",
      "outputs": [
        {
          "internalType": "bool",
          "name": "",
          "type": "bool"
        }
      ],
      "stateMutability": "view",
      "type": "function"
    },
    {
      "inputs": [],
      "name": "withdraw",
      "outputs": [],
      "stateMutability": "nonpayable",
      "type": "function"
    }
  ],
  "transactionHash": "0xb9fba06fc6d55a8808cfd6b5b26341b278a526ea7a148ac0e3867050d230475d",
  "args": [
    "0x8103B0A8A00be2DDC778e6e7eaa21791Cd364625",
    "12097",
    "500000",
    "0x474e34a077df58807dbe9c96d3c009b23b3c6d0cce433e59bbf5b34f823bc56c"
  ],
  "numDeployments": 4,
  "solcInputHash": "ca0c6b3e4017b7c7c3701a558a11d857",
  "bytecode": "0x6101406040523073ffffffffffffffffffffffffffffffffffffffff1660809073ffffffffffffffffffffffffffffffffffffffff168152503480156200004557600080fd5b5060405162005e1538038062005e1583398181016040528101906200006b919062000386565b838073ffffffffffffffffffffffffffffffffffffffff1660a08173ffffffffffffffffffffffffffffffffffffffff1681525050508373ffffffffffffffffffffffffffffffffffffffff1660c08173ffffffffffffffffffffffffffffffffffffffff16815250508267ffffffffffffffff166101008167ffffffffffffffff16815250508163ffffffff166101208163ffffffff16815250508060e081815250506200011f6200012960201b60201c565b5050505062000426565b60006200013b6200023360201b60201c565b90508060000160089054906101000a900460ff161562000187576040517ff92ee8a900000000000000000000000000000000000000000000000000000000815260040160405180910390fd5b67ffffffffffffffff80168160000160009054906101000a900467ffffffffffffffff1667ffffffffffffffff1614620002305767ffffffffffffffff8160000160006101000a81548167ffffffffffffffff021916908367ffffffffffffffff1602179055507fc7f505b2f371ae2175ee4913f4499e1f2633a7b5936321eed1cdaeb6115181d267ffffffffffffffff60405162000227919062000409565b60405180910390a15b50565b60007ff0c57e16840df040f15088dc2f81fe391c3923bec73e23a9662efc9c229c6a00905090565b600080fd5b600073ffffffffffffffffffffffffffffffffffffffff82169050919050565b60006200028d8262000260565b9050919050565b6200029f8162000280565b8114620002ab57600080fd5b50565b600081519050620002bf8162000294565b92915050565b600067ffffffffffffffff82169050919050565b620002e481620002c5565b8114620002f057600080fd5b50565b6000815190506200030481620002d9565b92915050565b600063ffffffff82169050919050565b62000325816200030a565b81146200033157600080fd5b50565b60008151905062000345816200031a565b92915050565b6000819050919050565b62000360816200034b565b81146200036c57600080fd5b50565b600081519050620003808162000355565b92915050565b60008060008060808587031215620003a357620003a26200025b565b5b6000620003b387828801620002ae565b9450506020620003c687828801620002f3565b9350506040620003d98782880162000334565b9250506060620003ec878288016200036f565b91505092959194509250565b6200040381620002c5565b82525050565b6000602082019050620004206000830184620003f8565b92915050565b60805160a05160c05160e051610100516101205161598a6200048b6000396000611616015260006115f3015260006115d201526000611596015260008181610917015261096b015260008181611c7f01528181611cd40152611e8f015261598a6000f3fe6080604052600436106101e35760003560e01c806370a0823111610102578063a4d66daf11610095578063e985e9c511610064578063e985e9c5146106d5578063eb93406b14610712578063f2fde38b14610730578063f877a8af14610759576101e3565b8063a4d66daf14610619578063ad3cb1cc14610644578063b88d4fde1461066f578063c87b56dd14610698576101e3565b80638da5cb5b116100d15780638da5cb5b1461056f57806395d89b411461059a578063a035b1fe146105c5578063a22cb465146105f0576101e3565b806370a08231146104d9578063715018a6146105165780637165485d1461052d5780638129fc1c14610558576101e3565b806323b872dd1161017a5780634f1ef286116101495780634f1ef286146104185780634f6ccce71461043457806352d1902d146104715780636352211e1461049c576101e3565b806323b872dd146103725780632f745c591461039b5780633ccfd60b146103d857806342842e0e146103ef576101e3565b8063081812fc116101b6578063081812fc146102b8578063095ea7b3146102f557806318160ddd1461031e5780631fe543e314610349576101e3565b806301ffc9a7146101e8578063060383411461022557806306fdde03146102505780630750b1631461027b575b600080fd5b3480156101f457600080fd5b5061020f600480360381019061020a9190614160565b610782565b60405161021c91906141a8565b60405180910390f35b34801561023157600080fd5b5061023a6107fc565b60405161024791906141a8565b60405180910390f35b34801561025c57600080fd5b5061026561080f565b6040516102729190614253565b60405180910390f35b34801561028757600080fd5b506102a2600480360381019061029d91906142ab565b6108b0565b6040516102af91906142e7565b60405180910390f35b3480156102c457600080fd5b506102df60048036038101906102da91906142ab565b6108c8565b6040516102ec9190614343565b60405180910390f35b34801561030157600080fd5b5061031c6004803603810190610317919061438a565b6108e4565b005b34801561032a57600080fd5b506103336108fa565b60405161034091906142e7565b60405180910390f35b34801561035557600080fd5b50610370600480360381019061036b9190614512565b610915565b005b34801561037e57600080fd5b506103996004803603810190610394919061456e565b6109d5565b005b3480156103a757600080fd5b506103c260048036038101906103bd919061438a565b610ad7565b6040516103cf91906142e7565b60405180910390f35b3480156103e457600080fd5b506103ed610b8e565b005b3480156103fb57600080fd5b506104166004803603810190610411919061456e565b610c99565b005b610432600480360381019061042d9190614676565b610cb9565b005b34801561044057600080fd5b5061045b600480360381019061045691906142ab565b610cd8565b60405161046891906142e7565b60405180910390f35b34801561047d57600080fd5b50610486610d5c565b60405161049391906146eb565b60405180910390f35b3480156104a857600080fd5b506104c360048036038101906104be91906142ab565b610d8f565b6040516104d09190614343565b60405180910390f35b3480156104e557600080fd5b5061050060048036038101906104fb9190614706565b610da1565b60405161050d91906142e7565b60405180910390f35b34801561052257600080fd5b5061052b610e6a565b005b34801561053957600080fd5b50610542610e7e565b60405161054f91906142e7565b60405180910390f35b34801561056457600080fd5b5061056d610e84565b005b34801561057b57600080fd5b506105846110bf565b6040516105919190614343565b60405180910390f35b3480156105a657600080fd5b506105af6110f7565b6040516105bc9190614253565b60405180910390f35b3480156105d157600080fd5b506105da611198565b6040516105e791906142e7565b60405180910390f35b3480156105fc57600080fd5b506106176004803603810190610612919061475f565b61119e565b005b34801561062557600080fd5b5061062e6111b4565b60405161063b91906142e7565b60405180910390f35b34801561065057600080fd5b506106596111ba565b6040516106669190614253565b60405180910390f35b34801561067b57600080fd5b506106966004803603810190610691919061479f565b6111f3565b005b3480156106a457600080fd5b506106bf60048036038101906106ba91906142ab565b611210565b6040516106cc9190614253565b60405180910390f35b3480156106e157600080fd5b506106fc60048036038101906106f79190614822565b611406565b60405161070991906141a8565b60405180910390f35b61071a6114a8565b60405161072791906142e7565b60405180910390f35b34801561073c57600080fd5b5061075760048036038101906107529190614706565b611710565b005b34801561076557600080fd5b50610780600480360381019061077b9190614862565b611796565b005b60007f780e9d63000000000000000000000000000000000000000000000000000000007bffffffffffffffffffffffffffffffffffffffffffffffffffffffff1916827bffffffffffffffffffffffffffffffffffffffffffffffffffffffff191614806107f557506107f4826117bb565b5b9050919050565b600660009054906101000a900460ff1681565b6060600061081b61189d565b905080600001805461082c906148be565b80601f0160208091040260200160405190810160405280929190818152602001828054610858906148be565b80156108a55780601f1061087a576101008083540402835291602001916108a5565b820191906000526020600020905b81548152906001019060200180831161088857829003601f168201915b505050505091505090565b60076020528060005260406000206000915090505481565b60006108d3826118c5565b506108dd8261194d565b9050919050565b6108f682826108f1611998565b6119a0565b5050565b6000806109056119b2565b9050806002018054905091505090565b7f000000000000000000000000000000000000000000000000000000000000000073ffffffffffffffffffffffffffffffffffffffff163373ffffffffffffffffffffffffffffffffffffffff16146109c757337f00000000000000000000000000000000000000000000000000000000000000006040517f1cf993f40000000000000000000000000000000000000000000000000000000081526004016109be9291906148ef565b60405180910390fd5b6109d182826119da565b5050565b600073ffffffffffffffffffffffffffffffffffffffff168273ffffffffffffffffffffffffffffffffffffffff1603610a475760006040517f64a0ae92000000000000000000000000000000000000000000000000000000008152600401610a3e9190614343565b60405180910390fd5b6000610a5b8383610a56611998565b611ad9565b90508373ffffffffffffffffffffffffffffffffffffffff168173ffffffffffffffffffffffffffffffffffffffff1614610ad1578382826040517f64283d7b000000000000000000000000000000000000000000000000000000008152600401610ac893929190614918565b60405180910390fd5b50505050565b600080610ae26119b2565b9050610aed84610da1565b8310610b325783836040517fa57d13dc000000000000000000000000000000000000000000000000000000008152600401610b2992919061494f565b60405180910390fd5b8060000160008573ffffffffffffffffffffffffffffffffffffffff1673ffffffffffffffffffffffffffffffffffffffff16815260200190815260200160002060008481526020019081526020016000205491505092915050565b610b96611bf6565b600047905060003373ffffffffffffffffffffffffffffffffffffffff1682604051610bc1906149a9565b60006040518083038185875af1925050503d8060008114610bfe576040519150601f19603f3d011682016040523d82523d6000602084013e610c03565b606091505b5050905080610c47576040517f08c379a0000000000000000000000000000000000000000000000000000000008152600401610c3e90614a0a565b60405180910390fd5b3373ffffffffffffffffffffffffffffffffffffffff167f884edad9ce6fa2440d8a54cc123490eb96d2768479d49ff9c7366125a942436483604051610c8d91906142e7565b60405180910390a25050565b610cb4838383604051806020016040528060008152506111f3565b505050565b610cc1611c7d565b610cca82611d63565b610cd48282611d6e565b5050565b600080610ce36119b2565b9050610ced6108fa565b8310610d33576000836040517fa57d13dc000000000000000000000000000000000000000000000000000000008152600401610d2a92919061494f565b60405180910390fd5b806002018381548110610d4957610d48614a2a565b5b9060005260206000200154915050919050565b6000610d66611e8d565b7f360894a13ba1a3210667c828492db98dca3e2076cc3735a920a3ca505d382bbc60001b905090565b6000610d9a826118c5565b9050919050565b600080610dac61189d565b9050600073ffffffffffffffffffffffffffffffffffffffff168373ffffffffffffffffffffffffffffffffffffffff1603610e205760006040517f89c62b64000000000000000000000000000000000000000000000000000000008152600401610e179190614343565b60405180910390fd5b8060030160008473ffffffffffffffffffffffffffffffffffffffff1673ffffffffffffffffffffffffffffffffffffffff16815260200190815260200160002054915050919050565b610e72611bf6565b610e7c6000611f14565b565b6103ea81565b6000610e8e611feb565b905060008160000160089054906101000a900460ff1615905060008260000160009054906101000a900467ffffffffffffffff1690506000808267ffffffffffffffff16148015610edc5750825b9050600060018367ffffffffffffffff16148015610f11575060003073ffffffffffffffffffffffffffffffffffffffff163b145b905081158015610f1f575080155b15610f56576040517ff92ee8a900000000000000000000000000000000000000000000000000000000815260040160405180910390fd5b60018560000160006101000a81548167ffffffffffffffff021916908367ffffffffffffffff1602179055508315610fa65760018560000160086101000a81548160ff0219169083151502179055505b61101a6040518060400160405280601081526020017f44796e616d6963537667456d6f6a6973000000000000000000000000000000008152506040518060400160405280600581526020017f454d4f4a49000000000000000000000000000000000000000000000000000000815250612013565b611022612029565b61102b33612033565b611033612047565b66038d7ea4c680006001819055506000600660006101000a81548160ff02191690831515021790555083156110b85760008560000160086101000a81548160ff0219169083151502179055507fc7f505b2f371ae2175ee4913f4499e1f2633a7b5936321eed1cdaeb6115181d260016040516110af9190614ab2565b60405180910390a15b5050505050565b6000806110ca612051565b90508060000160009054906101000a900473ffffffffffffffffffffffffffffffffffffffff1691505090565b6060600061110361189d565b9050806001018054611114906148be565b80601f0160208091040260200160405190810160405280929190818152602001828054611140906148be565b801561118d5780601f106111625761010080835404028352916020019161118d565b820191906000526020600020905b81548152906001019060200180831161117057829003601f168201915b505050505091505090565b60015481565b6111b06111a9611998565b8383612079565b5050565b610e9081565b6040518060400160405280600581526020017f352e302e3000000000000000000000000000000000000000000000000000000081525081565b6111fe8484846109d5565b61120a848484846121f7565b50505050565b6060600073ffffffffffffffffffffffffffffffffffffffff16611233836123ae565b73ffffffffffffffffffffffffffffffffffffffff1603611289576040517f08c379a000000000000000000000000000000000000000000000000000000000815260040161128090614b19565b60405180910390fd5b600061129483610d8f565b90506005600084815260200190815260200160002060009054906101000a900460ff1661134257734e401fcb736433733025FA7A725686c221FA6f53631115777084836040518363ffffffff1660e01b81526004016112f4929190614b57565b600060405180830381865af4158015611311573d6000803e3d6000fd5b505050506040513d6000823e3d601f19601f8201168201806040525081019061133a9190614c21565b915050611401565b734e401fcb736433733025FA7A725686c221FA6f53637af4732e84836002600088815260200190815260200160002060036000898152602001908152602001600020600460008a81526020019081526020016000206040518663ffffffff1660e01b81526004016113b7959493929190614f5c565b600060405180830381865af41580156113d4573d6000803e3d6000fd5b505050506040513d6000823e3d601f19601f820116820180604052508101906113fd9190614c21565b9150505b919050565b60008061141161189d565b90508060050160008573ffffffffffffffffffffffffffffffffffffffff1673ffffffffffffffffffffffffffffffffffffffff16815260200190815260200160002060008473ffffffffffffffffffffffffffffffffffffffff1673ffffffffffffffffffffffffffffffffffffffff16815260200190815260200160002060009054906101000a900460ff1691505092915050565b6000610e90600054106114f0576040517f08c379a00000000000000000000000000000000000000000000000000000000081526004016114e790615004565b60405180910390fd5b600154341015611535576040517f08c379a000000000000000000000000000000000000000000000000000000000815260040161152c90615070565b60405180910390fd5b6103e86103ea60015461154891906150bf565b6115529190615130565b60018190555060008081548092919061156a90615161565b9190505550600660009054906101000a900460ff166115925761158b6123f9565b905061170d565b60007f000000000000000000000000000000000000000000000000000000000000000073ffffffffffffffffffffffffffffffffffffffff16635d3b1d307f00000000000000000000000000000000000000000000000000000000000000007f000000000000000000000000000000000000000000000000000000000000000060037f000000000000000000000000000000000000000000000000000000000000000060026040518663ffffffff1660e01b81526004016116579594939291906151e6565b6020604051808303816000875af1158015611676573d6000803e3d6000fd5b505050506040513d601f19601f8201168201806040525081019061169a919061524e565b905060005460076000838152602001908152602001600020819055506116c233600054612579565b803373ffffffffffffffffffffffffffffffffffffffff167fc388c5a6c277eb0125a090abaa2e4f47d6c7394eacb52ad92653ebefc435d0a860405160405180910390a36000549150505b90565b611718611bf6565b600073ffffffffffffffffffffffffffffffffffffffff168173ffffffffffffffffffffffffffffffffffffffff160361178a5760006040517f1e4fbdf70000000000000000000000000000000000000000000000000000000081526004016117819190614343565b60405180910390fd5b61179381611f14565b50565b61179e611bf6565b80600660006101000a81548160ff02191690831515021790555050565b60007f80ac58cd000000000000000000000000000000000000000000000000000000007bffffffffffffffffffffffffffffffffffffffffffffffffffffffff1916827bffffffffffffffffffffffffffffffffffffffffffffffffffffffff1916148061188657507f5b5e139f000000000000000000000000000000000000000000000000000000007bffffffffffffffffffffffffffffffffffffffffffffffffffffffff1916827bffffffffffffffffffffffffffffffffffffffffffffffffffffffff1916145b80611896575061189582612597565b5b9050919050565b60007f80bb2b638cc20bc4d0a60d66940f3ab4a00c1d7b313497ca82fb0b4ab0079300905090565b6000806118d1836123ae565b9050600073ffffffffffffffffffffffffffffffffffffffff168173ffffffffffffffffffffffffffffffffffffffff160361194457826040517f7e27328900000000000000000000000000000000000000000000000000000000815260040161193b91906142e7565b60405180910390fd5b80915050919050565b60008061195861189d565b905080600401600084815260200190815260200160002060009054906101000a900473ffffffffffffffffffffffffffffffffffffffff16915050919050565b600033905090565b6119ad8383836001612601565b505050565b60007f645e039705490088daad89bae25049a34f4a9072d398537b1ab2425f24cbed00905090565b600263ffffffff1681511015611a25576040517f08c379a0000000000000000000000000000000000000000000000000000000008152600401611a1c906152c7565b60405180910390fd5b600060076000848152602001908152602001600020549050611a4781836127d5565b611a518183612d95565b611a5b8183613307565b60016005600083815260200190815260200160002060006101000a81548160ff0219169083151502179055508281611a92836123ae565b73ffffffffffffffffffffffffffffffffffffffff167ffc612aad4e70fb3e1d4832d8c65f92e4024aa87f809d131267a79bceee757f3360405160405180910390a4505050565b600080611ae7858585613476565b9050600073ffffffffffffffffffffffffffffffffffffffff168173ffffffffffffffffffffffffffffffffffffffff1603611b2b57611b26846136a3565b611b6a565b8473ffffffffffffffffffffffffffffffffffffffff168173ffffffffffffffffffffffffffffffffffffffff1614611b6957611b6881856136ff565b5b5b600073ffffffffffffffffffffffffffffffffffffffff168573ffffffffffffffffffffffffffffffffffffffff1603611bac57611ba784613879565b611beb565b8473ffffffffffffffffffffffffffffffffffffffff168173ffffffffffffffffffffffffffffffffffffffff1614611bea57611be98585613965565b5b5b809150509392505050565b611bfe611998565b73ffffffffffffffffffffffffffffffffffffffff16611c1c6110bf565b73ffffffffffffffffffffffffffffffffffffffff1614611c7b57611c3f611998565b6040517f118cdaa7000000000000000000000000000000000000000000000000000000008152600401611c729190614343565b60405180910390fd5b565b7f000000000000000000000000000000000000000000000000000000000000000073ffffffffffffffffffffffffffffffffffffffff163073ffffffffffffffffffffffffffffffffffffffff161480611d2a57507f000000000000000000000000000000000000000000000000000000000000000073ffffffffffffffffffffffffffffffffffffffff16611d11613a01565b73ffffffffffffffffffffffffffffffffffffffff1614155b15611d61576040517fe07c8dba00000000000000000000000000000000000000000000000000000000815260040160405180910390fd5b565b611d6b611bf6565b50565b8173ffffffffffffffffffffffffffffffffffffffff166352d1902d6040518163ffffffff1660e01b8152600401602060405180830381865afa925050508015611dd657506040513d601f19601f82011682018060405250810190611dd39190615313565b60015b611e1757816040517f4c9c8ce3000000000000000000000000000000000000000000000000000000008152600401611e0e9190614343565b60405180910390fd5b7f360894a13ba1a3210667c828492db98dca3e2076cc3735a920a3ca505d382bbc60001b8114611e7e57806040517faa1d49a4000000000000000000000000000000000000000000000000000000008152600401611e7591906146eb565b60405180910390fd5b611e888383613a58565b505050565b7f000000000000000000000000000000000000000000000000000000000000000073ffffffffffffffffffffffffffffffffffffffff163073ffffffffffffffffffffffffffffffffffffffff1614611f12576040517fe07c8dba00000000000000000000000000000000000000000000000000000000815260040160405180910390fd5b565b6000611f1e612051565b905060008160000160009054906101000a900473ffffffffffffffffffffffffffffffffffffffff169050828260000160006101000a81548173ffffffffffffffffffffffffffffffffffffffff021916908373ffffffffffffffffffffffffffffffffffffffff1602179055508273ffffffffffffffffffffffffffffffffffffffff168173ffffffffffffffffffffffffffffffffffffffff167f8be0079c531659141344cd1fd0a4f28419497f9722a3daafe3b4186f6b6457e060405160405180910390a3505050565b60007ff0c57e16840df040f15088dc2f81fe391c3923bec73e23a9662efc9c229c6a00905090565b61201b613acb565b6120258282613b0b565b5050565b612031613acb565b565b61203b613acb565b61204481613b48565b50565b61204f613acb565b565b60007f9016d09d72d40fdae2fd8ceac6b6234c7706214fd39c1cd1e609a0528c199300905090565b600061208361189d565b9050600073ffffffffffffffffffffffffffffffffffffffff168373ffffffffffffffffffffffffffffffffffffffff16036120f657826040517f5b08ba180000000000000000000000000000000000000000000000000000000081526004016120ed9190614343565b60405180910390fd5b818160050160008673ffffffffffffffffffffffffffffffffffffffff1673ffffffffffffffffffffffffffffffffffffffff16815260200190815260200160002060008573ffffffffffffffffffffffffffffffffffffffff1673ffffffffffffffffffffffffffffffffffffffff16815260200190815260200160002060006101000a81548160ff0219169083151502179055508273ffffffffffffffffffffffffffffffffffffffff168473ffffffffffffffffffffffffffffffffffffffff167f17307eab39ab6107e8899845ad3d59bd9653f200f220920489ca2b5937696c31846040516121e991906141a8565b60405180910390a350505050565b60008373ffffffffffffffffffffffffffffffffffffffff163b11156123a8578273ffffffffffffffffffffffffffffffffffffffff1663150b7a0261223b611998565b8685856040518563ffffffff1660e01b815260040161225d9493929190615395565b6020604051808303816000875af192505050801561229957506040513d601f19601f8201168201806040525081019061229691906153f6565b60015b61231d573d80600081146122c9576040519150601f19603f3d011682016040523d82523d6000602084013e6122ce565b606091505b50600081510361231557836040517f64a0ae9200000000000000000000000000000000000000000000000000000000815260040161230c9190614343565b60405180910390fd5b805181602001fd5b63150b7a0260e01b7bffffffffffffffffffffffffffffffffffffffffffffffffffffffff1916817bffffffffffffffffffffffffffffffffffffffffffffffffffffffff1916146123a657836040517f64a0ae9200000000000000000000000000000000000000000000000000000000815260040161239d9190614343565b60405180910390fd5b505b50505050565b6000806123b961189d565b905080600201600084815260200190815260200160002060009054906101000a900473ffffffffffffffffffffffffffffffffffffffff16915050919050565b600080600054905060006001436124109190615423565b409050600081306040516020016124289291906154c0565b604051602081830303815290604052805190602001209050600060024361244f9190615423565b409050600081306040516020016124679291906154c0565b6040516020818303038152906040528051906020012090506000600267ffffffffffffffff81111561249c5761249b6143cf565b5b6040519080825280602002602001820160405280156124ca5781602001602082028036833780820191505090505b5090508360001c816000815181106124e5576124e4614a2a565b5b6020026020010181815250508160001c8160018151811061250957612508614a2a565b5b60200260200101818152505061251f86826127d5565b6125298682612d95565b6125338682613307565b61253f33600054612579565b60016005600088815260200190815260200160002060006101000a81548160ff021916908315150217905550600054965050505050505090565b612593828260405180602001604052806000815250613bce565b5050565b60007f01ffc9a7000000000000000000000000000000000000000000000000000000007bffffffffffffffffffffffffffffffffffffffffffffffffffffffff1916827bffffffffffffffffffffffffffffffffffffffffffffffffffffffff1916149050919050565b600061260b61189d565b905081806126465750600073ffffffffffffffffffffffffffffffffffffffff168373ffffffffffffffffffffffffffffffffffffffff1614155b1561277a576000612656856118c5565b9050600073ffffffffffffffffffffffffffffffffffffffff168473ffffffffffffffffffffffffffffffffffffffff16141580156126c157508373ffffffffffffffffffffffffffffffffffffffff168173ffffffffffffffffffffffffffffffffffffffff1614155b80156126d457506126d28185611406565b155b1561271657836040517fa9fbf51f00000000000000000000000000000000000000000000000000000000815260040161270d9190614343565b60405180910390fd5b821561277857848673ffffffffffffffffffffffffffffffffffffffff168273ffffffffffffffffffffffffffffffffffffffff167f8c5be1e5ebec7d5bd14f71427d1e84f3dd0314c0f7b2291e5b200ac8c7c3b92560405160405180910390a45b505b8481600401600086815260200190815260200160002060006101000a81548173ffffffffffffffffffffffffffffffffffffffff021916908373ffffffffffffffffffffffffffffffffffffffff1602179055505050505050565b6000604051806102a001604052806040518060400160405280600681526020017f666665343939000000000000000000000000000000000000000000000000000081525081526020016040518060400160405280600681526020017f656164633961000000000000000000000000000000000000000000000000000081525081526020016040518060400160405280600681526020017f663462353862000000000000000000000000000000000000000000000000000081525081526020016040518060400160405280600681526020017f666663613537000000000000000000000000000000000000000000000000000081525081526020016040518060400160405280600681526020017f666364333033000000000000000000000000000000000000000000000000000081525081526020016040518060400160405280600681526020017f636336363030000000000000000000000000000000000000000000000000000081525081526020016040518060400160405280600681526020017f626164373238000000000000000000000000000000000000000000000000000081525081526020016040518060400160405280600681526020017f383264346236000000000000000000000000000000000000000000000000000081525081526020016040518060400160405280600681526020017f363838616262000000000000000000000000000000000000000000000000000081525081526020016040518060400160405280600681526020017f323838656437000000000000000000000000000000000000000000000000000081525081526020016040518060400160405280600681526020017f353736626362000000000000000000000000000000000000000000000000000081525081526020016040518060400160405280600681526020017f663033333436000000000000000000000000000000000000000000000000000081525081526020016040518060400160405280600681526020017f346334643464000000000000000000000000000000000000000000000000000081525081526020016040518060400160405280600681526020017f623531376137000000000000000000000000000000000000000000000000000081525081526020016040518060400160405280600681526020017f653231643666000000000000000000000000000000000000000000000000000081525081526020016040518060400160405280600681526020017f666662336362000000000000000000000000000000000000000000000000000081525081526020016040518060400160405280600681526020017f623466666164000000000000000000000000000000000000000000000000000081525081526020016040518060400160405280600681526020017f373566666466000000000000000000000000000000000000000000000000000081525081526020016040518060400160405280600681526020017f393964356666000000000000000000000000000000000000000000000000000081525081526020016040518060400160405280600681526020017f633639656666000000000000000000000000000000000000000000000000000081525081526020016040518060400160405280600681526020017f666635373730000000000000000000000000000000000000000000000000000081525081525090506000601583600081518110612cd257612cd1614a2a565b5b6020026020010151612ce491906154ec565b90506000600584600181518110612cfe57612cfd614a2a565b5b6020026020010151612d1091906154ec565b90506040518060400160405280848460158110612d3057612d2f614a2a565b5b602002015181526020018260ff16815250600260008781526020019081526020016000206000820151816000019081612d6991906156aa565b5060208201518160010160006101000a81548160ff021916908360ff1602179055509050505050505050565b60405180604001604052806040518060800160405280602761ffff168152602001602761ffff16815260200161013261ffff16815260200161015461ffff1681525081526020016040518060800160405280602761ffff168152602001602761ffff1681526020016101e661ffff16815260200161015461ffff168152508152506003600084815260200190815260200160002060008201518160000160008201518160000160006101000a81548161ffff021916908361ffff16021790555060208201518160000160026101000a81548161ffff021916908361ffff16021790555060408201518160000160046101000a81548161ffff021916908361ffff16021790555060608201518160000160066101000a81548161ffff021916908361ffff160217905550505060208201518160010160008201518160000160006101000a81548161ffff021916908361ffff16021790555060208201518160000160026101000a81548161ffff021916908361ffff16021790555060408201518160000160046101000a81548161ffff021916908361ffff16021790555060608201518160000160066101000a81548161ffff021916908361ffff16021790555050509050506000605082600081518110612f7257612f71614a2a565b5b6020026020010151612f8491906154ec565b9050600061020883600181518110612f9f57612f9e614a2a565b5b6020026020010151612fb191906154ec565b90506000600382612fc291906154ec565b036130cc57601482612fd4919061577c565b6003600086815260200190815260200160002060000160000160006101000a81548161ffff021916908361ffff160217905550601482613014919061577c565b6003600086815260200190815260200160002060000160000160026101000a81548161ffff021916908361ffff160217905550608281613054919061577c565b6003600086815260200190815260200160002060000160000160046101000a81548161ffff021916908361ffff16021790555060b481613094919061577c565b6003600086815260200190815260200160002060000160000160066101000a81548161ffff021916908361ffff160217905550613301565b60016003826130db91906154ec565b036131e5576014826130ed919061577c565b6003600086815260200190815260200160002060010160000160006101000a81548161ffff021916908361ffff16021790555060148261312d919061577c565b6003600086815260200190815260200160002060010160000160026101000a81548161ffff021916908361ffff16021790555060828161316d919061577c565b6003600086815260200190815260200160002060010160000160046101000a81548161ffff021916908361ffff16021790555060b4816131ad919061577c565b6003600086815260200190815260200160002060010160000160066101000a81548161ffff021916908361ffff160217905550613300565b60006002836131f491906154ec565b0361327e57601482613206919061577c565b6003600086815260200190815260200160002060000160000160006101000a81548161ffff021916908361ffff160217905550601482613246919061577c565b6003600086815260200190815260200160002060000160000160026101000a81548161ffff021916908361ffff1602179055506132ff565b60148261328b919061577c565b6003600086815260200190815260200160002060010160000160006101000a81548161ffff021916908361ffff1602179055506014826132cb919061577c565b6003600086815260200190815260200160002060010160000160026101000a81548161ffff021916908361ffff1602179055505b5b5b50505050565b600060328260008151811061331f5761331e614a2a565b5b602002602001015161333191906154ec565b90506000600a60148460018151811061334d5761334c614a2a565b5b602002602001015161335f91906154ec565b613369919061577c565b9050600060b48460018151811061338357613382614a2a565b5b602002602001015161339591906154ec565b60b4856000815181106133ab576133aa614a2a565b5b60200260200101516133bd91906154ec565b6133c7919061577c565b905060405180606001604052808461ffff1681526020018361ffff1681526020018261ffff168152506004600087815260200190815260200160002060008201518160000160006101000a81548161ffff021916908361ffff16021790555060208201518160000160026101000a81548161ffff021916908361ffff16021790555060408201518160000160046101000a81548161ffff021916908361ffff1602179055509050505050505050565b60008061348161189d565b9050600061348e856123ae565b9050600073ffffffffffffffffffffffffffffffffffffffff168473ffffffffffffffffffffffffffffffffffffffff16146134d0576134cf818587613bea565b5b600073ffffffffffffffffffffffffffffffffffffffff168173ffffffffffffffffffffffffffffffffffffffff161461356357613512600086600080612601565b60018260030160008373ffffffffffffffffffffffffffffffffffffffff1673ffffffffffffffffffffffffffffffffffffffff168152602001908152602001600020600082825403925050819055505b600073ffffffffffffffffffffffffffffffffffffffff168673ffffffffffffffffffffffffffffffffffffffff16146135e85760018260030160008873ffffffffffffffffffffffffffffffffffffffff1673ffffffffffffffffffffffffffffffffffffffff168152602001908152602001600020600082825401925050819055505b8582600201600087815260200190815260200160002060006101000a81548173ffffffffffffffffffffffffffffffffffffffff021916908373ffffffffffffffffffffffffffffffffffffffff160217905550848673ffffffffffffffffffffffffffffffffffffffff168273ffffffffffffffffffffffffffffffffffffffff167fddf252ad1be2c89b69c2b068fc378daa952ba7f163c4a11628f55a4df523b3ef60405160405180910390a480925050509392505050565b60006136ad6119b2565b9050806002018054905081600301600084815260200190815260200160002081905550806002018290806001815401808255809150506001900390600052602060002001600090919091909150555050565b60006137096119b2565b9050600061371684610da1565b905060008260010160008581526020019081526020016000205490508181146138035760008360000160008773ffffffffffffffffffffffffffffffffffffffff1673ffffffffffffffffffffffffffffffffffffffff1681526020019081526020016000206000848152602001908152602001600020549050808460000160008873ffffffffffffffffffffffffffffffffffffffff1673ffffffffffffffffffffffffffffffffffffffff1681526020019081526020016000206000848152602001908152602001600020819055508184600101600083815260200190815260200160002081905550505b826001016000858152602001908152602001600020600090558260000160008673ffffffffffffffffffffffffffffffffffffffff1673ffffffffffffffffffffffffffffffffffffffff1681526020019081526020016000206000838152602001908152602001600020600090555050505050565b60006138836119b2565b905060006001826002018054905061389b9190615423565b9050600082600301600085815260200190815260200160002054905060008360020183815481106138cf576138ce614a2a565b5b90600052602060002001549050808460020183815481106138f3576138f2614a2a565b5b906000526020600020018190555081846003016000838152602001908152602001600020819055508360030160008681526020019081526020016000206000905583600201805480613948576139476157b0565b5b600190038181906000526020600020016000905590555050505050565b600061396f6119b2565b90506000600161397e85610da1565b6139889190615423565b9050828260000160008673ffffffffffffffffffffffffffffffffffffffff1673ffffffffffffffffffffffffffffffffffffffff168152602001908152602001600020600083815260200190815260200160002081905550808260010160008581526020019081526020016000208190555050505050565b6000613a2f7f360894a13ba1a3210667c828492db98dca3e2076cc3735a920a3ca505d382bbc60001b613cae565b60000160009054906101000a900473ffffffffffffffffffffffffffffffffffffffff16905090565b613a6182613cb8565b8173ffffffffffffffffffffffffffffffffffffffff167fbc7cd75a20ee27fd9adebab32041f755214dbc6bffa90cc0225b39da2e5c2d3b60405160405180910390a2600081511115613abe57613ab88282613d85565b50613ac7565b613ac6613e09565b5b5050565b613ad3613e46565b613b09576040517fd7e6bcf800000000000000000000000000000000000000000000000000000000815260040160405180910390fd5b565b613b13613acb565b6000613b1d61189d565b905082816000019081613b30919061583a565b5081816001019081613b42919061583a565b50505050565b613b50613acb565b600073ffffffffffffffffffffffffffffffffffffffff168173ffffffffffffffffffffffffffffffffffffffff1603613bc25760006040517f1e4fbdf7000000000000000000000000000000000000000000000000000000008152600401613bb99190614343565b60405180910390fd5b613bcb81611f14565b50565b613bd88383613e66565b613be560008484846121f7565b505050565b613bf5838383613f5f565b613ca957600073ffffffffffffffffffffffffffffffffffffffff168373ffffffffffffffffffffffffffffffffffffffff1603613c6a57806040517f7e273289000000000000000000000000000000000000000000000000000000008152600401613c6191906142e7565b60405180910390fd5b81816040517f177e802f000000000000000000000000000000000000000000000000000000008152600401613ca092919061494f565b60405180910390fd5b505050565b6000819050919050565b60008173ffffffffffffffffffffffffffffffffffffffff163b03613d1457806040517f4c9c8ce3000000000000000000000000000000000000000000000000000000008152600401613d0b9190614343565b60405180910390fd5b80613d417f360894a13ba1a3210667c828492db98dca3e2076cc3735a920a3ca505d382bbc60001b613cae565b60000160006101000a81548173ffffffffffffffffffffffffffffffffffffffff021916908373ffffffffffffffffffffffffffffffffffffffff16021790555050565b60606000808473ffffffffffffffffffffffffffffffffffffffff1684604051613daf919061593d565b600060405180830381855af49150503d8060008114613dea576040519150601f19603f3d011682016040523d82523d6000602084013e613def565b606091505b5091509150613dff858383614020565b9250505092915050565b6000341115613e44576040517fb398979f00000000000000000000000000000000000000000000000000000000815260040160405180910390fd5b565b6000613e50611feb565b60000160089054906101000a900460ff16905090565b600073ffffffffffffffffffffffffffffffffffffffff168273ffffffffffffffffffffffffffffffffffffffff1603613ed85760006040517f64a0ae92000000000000000000000000000000000000000000000000000000008152600401613ecf9190614343565b60405180910390fd5b6000613ee683836000611ad9565b9050600073ffffffffffffffffffffffffffffffffffffffff168173ffffffffffffffffffffffffffffffffffffffff1614613f5a5760006040517f73c6ac6e000000000000000000000000000000000000000000000000000000008152600401613f519190614343565b60405180910390fd5b505050565b60008073ffffffffffffffffffffffffffffffffffffffff168373ffffffffffffffffffffffffffffffffffffffff161415801561401757508273ffffffffffffffffffffffffffffffffffffffff168473ffffffffffffffffffffffffffffffffffffffff161480613fd85750613fd78484611406565b5b8061401657508273ffffffffffffffffffffffffffffffffffffffff16613ffe8361194d565b73ffffffffffffffffffffffffffffffffffffffff16145b5b90509392505050565b60608261403557614030826140af565b6140a7565b6000825114801561405d575060008473ffffffffffffffffffffffffffffffffffffffff163b145b1561409f57836040517f9996b3150000000000000000000000000000000000000000000000000000000081526004016140969190614343565b60405180910390fd5b8190506140a8565b5b9392505050565b6000815111156140c25780518082602001fd5b6040517f1425ea4200000000000000000000000000000000000000000000000000000000815260040160405180910390fd5b6000604051905090565b600080fd5b600080fd5b60007fffffffff0000000000000000000000000000000000000000000000000000000082169050919050565b61413d81614108565b811461414857600080fd5b50565b60008135905061415a81614134565b92915050565b600060208284031215614176576141756140fe565b5b60006141848482850161414b565b91505092915050565b60008115159050919050565b6141a28161418d565b82525050565b60006020820190506141bd6000830184614199565b92915050565b600081519050919050565b600082825260208201905092915050565b60005b838110156141fd5780820151818401526020810190506141e2565b60008484015250505050565b6000601f19601f8301169050919050565b6000614225826141c3565b61422f81856141ce565b935061423f8185602086016141df565b61424881614209565b840191505092915050565b6000602082019050818103600083015261426d818461421a565b905092915050565b6000819050919050565b61428881614275565b811461429357600080fd5b50565b6000813590506142a58161427f565b92915050565b6000602082840312156142c1576142c06140fe565b5b60006142cf84828501614296565b91505092915050565b6142e181614275565b82525050565b60006020820190506142fc60008301846142d8565b92915050565b600073ffffffffffffffffffffffffffffffffffffffff82169050919050565b600061432d82614302565b9050919050565b61433d81614322565b82525050565b60006020820190506143586000830184614334565b92915050565b61436781614322565b811461437257600080fd5b50565b6000813590506143848161435e565b92915050565b600080604083850312156143a1576143a06140fe565b5b60006143af85828601614375565b92505060206143c085828601614296565b9150509250929050565b600080fd5b7f4e487b7100000000000000000000000000000000000000000000000000000000600052604160045260246000fd5b61440782614209565b810181811067ffffffffffffffff82111715614426576144256143cf565b5b80604052505050565b60006144396140f4565b905061444582826143fe565b919050565b600067ffffffffffffffff821115614465576144646143cf565b5b602082029050602081019050919050565b600080fd5b600061448e6144898461444a565b61442f565b905080838252602082019050602084028301858111156144b1576144b0614476565b5b835b818110156144da57806144c68882614296565b8452602084019350506020810190506144b3565b5050509392505050565b600082601f8301126144f9576144f86143ca565b5b813561450984826020860161447b565b91505092915050565b60008060408385031215614529576145286140fe565b5b600061453785828601614296565b925050602083013567ffffffffffffffff81111561455857614557614103565b5b614564858286016144e4565b9150509250929050565b600080600060608486031215614587576145866140fe565b5b600061459586828701614375565b93505060206145a686828701614375565b92505060406145b786828701614296565b9150509250925092565b600080fd5b600067ffffffffffffffff8211156145e1576145e06143cf565b5b6145ea82614209565b9050602081019050919050565b82818337600083830152505050565b6000614619614614846145c6565b61442f565b905082815260208101848484011115614635576146346145c1565b5b6146408482856145f7565b509392505050565b600082601f83011261465d5761465c6143ca565b5b813561466d848260208601614606565b91505092915050565b6000806040838503121561468d5761468c6140fe565b5b600061469b85828601614375565b925050602083013567ffffffffffffffff8111156146bc576146bb614103565b5b6146c885828601614648565b9150509250929050565b6000819050919050565b6146e5816146d2565b82525050565b600060208201905061470060008301846146dc565b92915050565b60006020828403121561471c5761471b6140fe565b5b600061472a84828501614375565b91505092915050565b61473c8161418d565b811461474757600080fd5b50565b60008135905061475981614733565b92915050565b60008060408385031215614776576147756140fe565b5b600061478485828601614375565b92505060206147958582860161474a565b9150509250929050565b600080600080608085870312156147b9576147b86140fe565b5b60006147c787828801614375565b94505060206147d887828801614375565b93505060406147e987828801614296565b925050606085013567ffffffffffffffff81111561480a57614809614103565b5b61481687828801614648565b91505092959194509250565b60008060408385031215614839576148386140fe565b5b600061484785828601614375565b925050602061485885828601614375565b9150509250929050565b600060208284031215614878576148776140fe565b5b60006148868482850161474a565b91505092915050565b7f4e487b7100000000000000000000000000000000000000000000000000000000600052602260045260246000fd5b600060028204905060018216806148d657607f821691505b6020821081036148e9576148e861488f565b5b50919050565b60006040820190506149046000830185614334565b6149116020830184614334565b9392505050565b600060608201905061492d6000830186614334565b61493a60208301856142d8565b6149476040830184614334565b949350505050565b60006040820190506149646000830185614334565b61497160208301846142d8565b9392505050565b600081905092915050565b50565b6000614993600083614978565b915061499e82614983565b600082019050919050565b60006149b482614986565b9150819050919050565b7f5769746864726177206661696c65640000000000000000000000000000000000600082015250565b60006149f4600f836141ce565b91506149ff826149be565b602082019050919050565b60006020820190508181036000830152614a23816149e7565b9050919050565b7f4e487b7100000000000000000000000000000000000000000000000000000000600052603260045260246000fd5b6000819050919050565b600067ffffffffffffffff82169050919050565b6000819050919050565b6000614a9c614a97614a9284614a59565b614a77565b614a63565b9050919050565b614aac81614a81565b82525050565b6000602082019050614ac76000830184614aa3565b92915050565b7f6e6f742065786973740000000000000000000000000000000000000000000000600082015250565b6000614b036009836141ce565b9150614b0e82614acd565b602082019050919050565b60006020820190508181036000830152614b3281614af6565b9050919050565b614b4281614275565b82525050565b614b5181614322565b82525050565b6000604082019050614b6c6000830185614b39565b614b796020830184614b48565b9392505050565b600067ffffffffffffffff821115614b9b57614b9a6143cf565b5b614ba482614209565b9050602081019050919050565b6000614bc4614bbf84614b80565b61442f565b905082815260208101848484011115614be057614bdf6145c1565b5b614beb8482856141df565b509392505050565b600082601f830112614c0857614c076143ca565b5b8151614c18848260208601614bb1565b91505092915050565b600060208284031215614c3757614c366140fe565b5b600082015167ffffffffffffffff811115614c5557614c54614103565b5b614c6184828501614bf3565b91505092915050565b600082825260208201905092915050565b60008190508160005260206000209050919050565b60008154614c9d816148be565b614ca78186614c6a565b94506001821660008114614cc25760018114614cd857614d0b565b60ff198316865281151560200286019350614d0b565b614ce185614c7b565b60005b83811015614d0357815481890152600182019150602081019050614ce4565b808801955050505b50505092915050565b60008160001c9050919050565b600060ff82169050919050565b6000614d41614d3c83614d14565b614d21565b9050919050565b600060ff82169050919050565b614d5e81614d48565b82525050565b60006040830160008084018583036000870152614d818382614c90565b92505060018401549050614d9481614d2e565b614da16020870182614d55565b50819250505092915050565b600061ffff82169050919050565b6000614dce614dc983614d14565b614dad565b9050919050565b600061ffff82169050919050565b614dec81614dd5565b82525050565b60008160101c9050919050565b6000614e12614e0d83614df2565b614dad565b9050919050565b60008160201c9050919050565b6000614e39614e3483614e19565b614dad565b9050919050565b60008160301c9050919050565b6000614e60614e5b83614e40565b614dad565b9050919050565b608082016000808301549050614e7c81614dbb565b614e896000860182614de3565b50614e9381614dff565b614ea06020860182614de3565b50614eaa81614e26565b614eb76040860182614de3565b50614ec181614e4d565b614ece6060860182614de3565b5050505050565b61010082016000808301614eec6000860182614e67565b5060018301614efe6080860182614e67565b5050505050565b606082016000808301549050614f1a81614dbb565b614f276000860182614de3565b50614f3181614dff565b614f3e6020860182614de3565b50614f4881614e26565b614f556040860182614de3565b5050505050565b60006101c082019050614f726000830188614b39565b614f7f6020830187614b48565b8181036040830152614f918186614d64565b9050614fa06060830185614ed5565b614fae610160830184614f05565b9695505050505050565b7f444f4e45204d494e54494e470000000000000000000000000000000000000000600082015250565b6000614fee600c836141ce565b9150614ff982614fb8565b602082019050919050565b6000602082019050818103600083015261501d81614fe1565b9050919050565b7f4e4f5420454e4f55474800000000000000000000000000000000000000000000600082015250565b600061505a600a836141ce565b915061506582615024565b602082019050919050565b600060208201905081810360008301526150898161504d565b9050919050565b7f4e487b7100000000000000000000000000000000000000000000000000000000600052601160045260246000fd5b60006150ca82614275565b91506150d583614275565b92508282026150e381614275565b915082820484148315176150fa576150f9615090565b5b5092915050565b7f4e487b7100000000000000000000000000000000000000000000000000000000600052601260045260246000fd5b600061513b82614275565b915061514683614275565b92508261515657615155615101565b5b828204905092915050565b600061516c82614275565b91507fffffffffffffffffffffffffffffffffffffffffffffffffffffffffffffffff820361519e5761519d615090565b5b600182019050919050565b6151b281614a63565b82525050565b6151c181614dd5565b82525050565b600063ffffffff82169050919050565b6151e0816151c7565b82525050565b600060a0820190506151fb60008301886146dc565b61520860208301876151a9565b61521560408301866151b8565b61522260608301856151d7565b61522f60808301846151d7565b9695505050505050565b6000815190506152488161427f565b92915050565b600060208284031215615264576152636140fe565b5b600061527284828501615239565b91505092915050565b7f4e6f7420656e6f7567682072616e646f6d206e756d6265727300000000000000600082015250565b60006152b16019836141ce565b91506152bc8261527b565b602082019050919050565b600060208201905081810360008301526152e0816152a4565b9050919050565b6152f0816146d2565b81146152fb57600080fd5b50565b60008151905061530d816152e7565b92915050565b600060208284031215615329576153286140fe565b5b6000615337848285016152fe565b91505092915050565b600081519050919050565b600082825260208201905092915050565b600061536782615340565b615371818561534b565b93506153818185602086016141df565b61538a81614209565b840191505092915050565b60006080820190506153aa6000830187614334565b6153b76020830186614334565b6153c460408301856142d8565b81810360608301526153d6818461535c565b905095945050505050565b6000815190506153f081614134565b92915050565b60006020828403121561540c5761540b6140fe565b5b600061541a848285016153e1565b91505092915050565b600061542e82614275565b915061543983614275565b925082820390508181111561545157615450615090565b5b92915050565b6000819050919050565b61547261546d826146d2565b615457565b82525050565b60008160601b9050919050565b600061549082615478565b9050919050565b60006154a282615485565b9050919050565b6154ba6154b582614322565b615497565b82525050565b60006154cc8285615461565b6020820191506154dc82846154a9565b6014820191508190509392505050565b60006154f782614275565b915061550283614275565b92508261551257615511615101565b5b828206905092915050565b60006020601f8301049050919050565b600082821b905092915050565b60006008830261556a7fffffffffffffffffffffffffffffffffffffffffffffffffffffffffffffffff8261552d565b615574868361552d565b95508019841693508086168417925050509392505050565b60006155a76155a261559d84614275565b614a77565b614275565b9050919050565b6000819050919050565b6155c18361558c565b6155d56155cd826155ae565b84845461553a565b825550505050565b600090565b6155ea6155dd565b6155f58184846155b8565b505050565b5b818110156156195761560e6000826155e2565b6001810190506155fb565b5050565b601f82111561565e5761562f81614c7b565b6156388461551d565b81016020851015615647578190505b61565b6156538561551d565b8301826155fa565b50505b505050565b600082821c905092915050565b600061568160001984600802615663565b1980831691505092915050565b600061569a8383615670565b9150826002028217905092915050565b6156b382615340565b67ffffffffffffffff8111156156cc576156cb6143cf565b5b6156d682546148be565b6156e182828561561d565b600060209050601f8311600181146157145760008415615702578287015190505b61570c858261568e565b865550615774565b601f19841661572286614c7b565b60005b8281101561574a57848901518255600182019150602085019450602081019050615725565b868310156157675784890151615763601f891682615670565b8355505b6001600288020188555050505b505050505050565b600061578782614275565b915061579283614275565b92508282019050808211156157aa576157a9615090565b5b92915050565b7f4e487b7100000000000000000000000000000000000000000000000000000000600052603160045260246000fd5b60008190508160005260206000209050919050565b601f82111561583557615806816157df565b61580f8461551d565b8101602085101561581e578190505b61583261582a8561551d565b8301826155fa565b50505b505050565b615843826141c3565b67ffffffffffffffff81111561585c5761585b6143cf565b5b61586682546148be565b6158718282856157f4565b600060209050601f8311600181146158a45760008415615892578287015190505b61589c858261568e565b865550615904565b601f1984166158b2866157df565b60005b828110156158da578489015182556001820191506020850194506020810190506158b5565b868310156158f757848901516158f3601f891682615670565b8355505b6001600288020188555050505b505050505050565b600061591782615340565b6159218185614978565b93506159318185602086016141df565b80840191505092915050565b6000615949828461590c565b91508190509291505056fea2646970667358221220acf369dec9ad262e2ba106a6fbc064fc0739bde6a3bdbd5c2da224c43186a4c364736f6c63430008140033",
  "deployedBytecode": "0x6080604052600436106101e35760003560e01c806370a0823111610102578063a4d66daf11610095578063e985e9c511610064578063e985e9c5146106d5578063eb93406b14610712578063f2fde38b14610730578063f877a8af14610759576101e3565b8063a4d66daf14610619578063ad3cb1cc14610644578063b88d4fde1461066f578063c87b56dd14610698576101e3565b80638da5cb5b116100d15780638da5cb5b1461056f57806395d89b411461059a578063a035b1fe146105c5578063a22cb465146105f0576101e3565b806370a08231146104d9578063715018a6146105165780637165485d1461052d5780638129fc1c14610558576101e3565b806323b872dd1161017a5780634f1ef286116101495780634f1ef286146104185780634f6ccce71461043457806352d1902d146104715780636352211e1461049c576101e3565b806323b872dd146103725780632f745c591461039b5780633ccfd60b146103d857806342842e0e146103ef576101e3565b8063081812fc116101b6578063081812fc146102b8578063095ea7b3146102f557806318160ddd1461031e5780631fe543e314610349576101e3565b806301ffc9a7146101e8578063060383411461022557806306fdde03146102505780630750b1631461027b575b600080fd5b3480156101f457600080fd5b5061020f600480360381019061020a9190614160565b610782565b60405161021c91906141a8565b60405180910390f35b34801561023157600080fd5b5061023a6107fc565b60405161024791906141a8565b60405180910390f35b34801561025c57600080fd5b5061026561080f565b6040516102729190614253565b60405180910390f35b34801561028757600080fd5b506102a2600480360381019061029d91906142ab565b6108b0565b6040516102af91906142e7565b60405180910390f35b3480156102c457600080fd5b506102df60048036038101906102da91906142ab565b6108c8565b6040516102ec9190614343565b60405180910390f35b34801561030157600080fd5b5061031c6004803603810190610317919061438a565b6108e4565b005b34801561032a57600080fd5b506103336108fa565b60405161034091906142e7565b60405180910390f35b34801561035557600080fd5b50610370600480360381019061036b9190614512565b610915565b005b34801561037e57600080fd5b506103996004803603810190610394919061456e565b6109d5565b005b3480156103a757600080fd5b506103c260048036038101906103bd919061438a565b610ad7565b6040516103cf91906142e7565b60405180910390f35b3480156103e457600080fd5b506103ed610b8e565b005b3480156103fb57600080fd5b506104166004803603810190610411919061456e565b610c99565b005b610432600480360381019061042d9190614676565b610cb9565b005b34801561044057600080fd5b5061045b600480360381019061045691906142ab565b610cd8565b60405161046891906142e7565b60405180910390f35b34801561047d57600080fd5b50610486610d5c565b60405161049391906146eb565b60405180910390f35b3480156104a857600080fd5b506104c360048036038101906104be91906142ab565b610d8f565b6040516104d09190614343565b60405180910390f35b3480156104e557600080fd5b5061050060048036038101906104fb9190614706565b610da1565b60405161050d91906142e7565b60405180910390f35b34801561052257600080fd5b5061052b610e6a565b005b34801561053957600080fd5b50610542610e7e565b60405161054f91906142e7565b60405180910390f35b34801561056457600080fd5b5061056d610e84565b005b34801561057b57600080fd5b506105846110bf565b6040516105919190614343565b60405180910390f35b3480156105a657600080fd5b506105af6110f7565b6040516105bc9190614253565b60405180910390f35b3480156105d157600080fd5b506105da611198565b6040516105e791906142e7565b60405180910390f35b3480156105fc57600080fd5b506106176004803603810190610612919061475f565b61119e565b005b34801561062557600080fd5b5061062e6111b4565b60405161063b91906142e7565b60405180910390f35b34801561065057600080fd5b506106596111ba565b6040516106669190614253565b60405180910390f35b34801561067b57600080fd5b506106966004803603810190610691919061479f565b6111f3565b005b3480156106a457600080fd5b506106bf60048036038101906106ba91906142ab565b611210565b6040516106cc9190614253565b60405180910390f35b3480156106e157600080fd5b506106fc60048036038101906106f79190614822565b611406565b60405161070991906141a8565b60405180910390f35b61071a6114a8565b60405161072791906142e7565b60405180910390f35b34801561073c57600080fd5b5061075760048036038101906107529190614706565b611710565b005b34801561076557600080fd5b50610780600480360381019061077b9190614862565b611796565b005b60007f780e9d63000000000000000000000000000000000000000000000000000000007bffffffffffffffffffffffffffffffffffffffffffffffffffffffff1916827bffffffffffffffffffffffffffffffffffffffffffffffffffffffff191614806107f557506107f4826117bb565b5b9050919050565b600660009054906101000a900460ff1681565b6060600061081b61189d565b905080600001805461082c906148be565b80601f0160208091040260200160405190810160405280929190818152602001828054610858906148be565b80156108a55780601f1061087a576101008083540402835291602001916108a5565b820191906000526020600020905b81548152906001019060200180831161088857829003601f168201915b505050505091505090565b60076020528060005260406000206000915090505481565b60006108d3826118c5565b506108dd8261194d565b9050919050565b6108f682826108f1611998565b6119a0565b5050565b6000806109056119b2565b9050806002018054905091505090565b7f000000000000000000000000000000000000000000000000000000000000000073ffffffffffffffffffffffffffffffffffffffff163373ffffffffffffffffffffffffffffffffffffffff16146109c757337f00000000000000000000000000000000000000000000000000000000000000006040517f1cf993f40000000000000000000000000000000000000000000000000000000081526004016109be9291906148ef565b60405180910390fd5b6109d182826119da565b5050565b600073ffffffffffffffffffffffffffffffffffffffff168273ffffffffffffffffffffffffffffffffffffffff1603610a475760006040517f64a0ae92000000000000000000000000000000000000000000000000000000008152600401610a3e9190614343565b60405180910390fd5b6000610a5b8383610a56611998565b611ad9565b90508373ffffffffffffffffffffffffffffffffffffffff168173ffffffffffffffffffffffffffffffffffffffff1614610ad1578382826040517f64283d7b000000000000000000000000000000000000000000000000000000008152600401610ac893929190614918565b60405180910390fd5b50505050565b600080610ae26119b2565b9050610aed84610da1565b8310610b325783836040517fa57d13dc000000000000000000000000000000000000000000000000000000008152600401610b2992919061494f565b60405180910390fd5b8060000160008573ffffffffffffffffffffffffffffffffffffffff1673ffffffffffffffffffffffffffffffffffffffff16815260200190815260200160002060008481526020019081526020016000205491505092915050565b610b96611bf6565b600047905060003373ffffffffffffffffffffffffffffffffffffffff1682604051610bc1906149a9565b60006040518083038185875af1925050503d8060008114610bfe576040519150601f19603f3d011682016040523d82523d6000602084013e610c03565b606091505b5050905080610c47576040517f08c379a0000000000000000000000000000000000000000000000000000000008152600401610c3e90614a0a565b60405180910390fd5b3373ffffffffffffffffffffffffffffffffffffffff167f884edad9ce6fa2440d8a54cc123490eb96d2768479d49ff9c7366125a942436483604051610c8d91906142e7565b60405180910390a25050565b610cb4838383604051806020016040528060008152506111f3565b505050565b610cc1611c7d565b610cca82611d63565b610cd48282611d6e565b5050565b600080610ce36119b2565b9050610ced6108fa565b8310610d33576000836040517fa57d13dc000000000000000000000000000000000000000000000000000000008152600401610d2a92919061494f565b60405180910390fd5b806002018381548110610d4957610d48614a2a565b5b9060005260206000200154915050919050565b6000610d66611e8d565b7f360894a13ba1a3210667c828492db98dca3e2076cc3735a920a3ca505d382bbc60001b905090565b6000610d9a826118c5565b9050919050565b600080610dac61189d565b9050600073ffffffffffffffffffffffffffffffffffffffff168373ffffffffffffffffffffffffffffffffffffffff1603610e205760006040517f89c62b64000000000000000000000000000000000000000000000000000000008152600401610e179190614343565b60405180910390fd5b8060030160008473ffffffffffffffffffffffffffffffffffffffff1673ffffffffffffffffffffffffffffffffffffffff16815260200190815260200160002054915050919050565b610e72611bf6565b610e7c6000611f14565b565b6103ea81565b6000610e8e611feb565b905060008160000160089054906101000a900460ff1615905060008260000160009054906101000a900467ffffffffffffffff1690506000808267ffffffffffffffff16148015610edc5750825b9050600060018367ffffffffffffffff16148015610f11575060003073ffffffffffffffffffffffffffffffffffffffff163b145b905081158015610f1f575080155b15610f56576040517ff92ee8a900000000000000000000000000000000000000000000000000000000815260040160405180910390fd5b60018560000160006101000a81548167ffffffffffffffff021916908367ffffffffffffffff1602179055508315610fa65760018560000160086101000a81548160ff0219169083151502179055505b61101a6040518060400160405280601081526020017f44796e616d6963537667456d6f6a6973000000000000000000000000000000008152506040518060400160405280600581526020017f454d4f4a49000000000000000000000000000000000000000000000000000000815250612013565b611022612029565b61102b33612033565b611033612047565b66038d7ea4c680006001819055506000600660006101000a81548160ff02191690831515021790555083156110b85760008560000160086101000a81548160ff0219169083151502179055507fc7f505b2f371ae2175ee4913f4499e1f2633a7b5936321eed1cdaeb6115181d260016040516110af9190614ab2565b60405180910390a15b5050505050565b6000806110ca612051565b90508060000160009054906101000a900473ffffffffffffffffffffffffffffffffffffffff1691505090565b6060600061110361189d565b9050806001018054611114906148be565b80601f0160208091040260200160405190810160405280929190818152602001828054611140906148be565b801561118d5780601f106111625761010080835404028352916020019161118d565b820191906000526020600020905b81548152906001019060200180831161117057829003601f168201915b505050505091505090565b60015481565b6111b06111a9611998565b8383612079565b5050565b610e9081565b6040518060400160405280600581526020017f352e302e3000000000000000000000000000000000000000000000000000000081525081565b6111fe8484846109d5565b61120a848484846121f7565b50505050565b6060600073ffffffffffffffffffffffffffffffffffffffff16611233836123ae565b73ffffffffffffffffffffffffffffffffffffffff1603611289576040517f08c379a000000000000000000000000000000000000000000000000000000000815260040161128090614b19565b60405180910390fd5b600061129483610d8f565b90506005600084815260200190815260200160002060009054906101000a900460ff166113425773__$32fa6a3b9a722542ba964e575c4cd0333d$__631115777084836040518363ffffffff1660e01b81526004016112f4929190614b57565b600060405180830381865af4158015611311573d6000803e3d6000fd5b505050506040513d6000823e3d601f19601f8201168201806040525081019061133a9190614c21565b915050611401565b73__$32fa6a3b9a722542ba964e575c4cd0333d$__637af4732e84836002600088815260200190815260200160002060036000898152602001908152602001600020600460008a81526020019081526020016000206040518663ffffffff1660e01b81526004016113b7959493929190614f5c565b600060405180830381865af41580156113d4573d6000803e3d6000fd5b505050506040513d6000823e3d601f19601f820116820180604052508101906113fd9190614c21565b9150505b919050565b60008061141161189d565b90508060050160008573ffffffffffffffffffffffffffffffffffffffff1673ffffffffffffffffffffffffffffffffffffffff16815260200190815260200160002060008473ffffffffffffffffffffffffffffffffffffffff1673ffffffffffffffffffffffffffffffffffffffff16815260200190815260200160002060009054906101000a900460ff1691505092915050565b6000610e90600054106114f0576040517f08c379a00000000000000000000000000000000000000000000000000000000081526004016114e790615004565b60405180910390fd5b600154341015611535576040517f08c379a000000000000000000000000000000000000000000000000000000000815260040161152c90615070565b60405180910390fd5b6103e86103ea60015461154891906150bf565b6115529190615130565b60018190555060008081548092919061156a90615161565b9190505550600660009054906101000a900460ff166115925761158b6123f9565b905061170d565b60007f000000000000000000000000000000000000000000000000000000000000000073ffffffffffffffffffffffffffffffffffffffff16635d3b1d307f00000000000000000000000000000000000000000000000000000000000000007f000000000000000000000000000000000000000000000000000000000000000060037f000000000000000000000000000000000000000000000000000000000000000060026040518663ffffffff1660e01b81526004016116579594939291906151e6565b6020604051808303816000875af1158015611676573d6000803e3d6000fd5b505050506040513d601f19601f8201168201806040525081019061169a919061524e565b905060005460076000838152602001908152602001600020819055506116c233600054612579565b803373ffffffffffffffffffffffffffffffffffffffff167fc388c5a6c277eb0125a090abaa2e4f47d6c7394eacb52ad92653ebefc435d0a860405160405180910390a36000549150505b90565b611718611bf6565b600073ffffffffffffffffffffffffffffffffffffffff168173ffffffffffffffffffffffffffffffffffffffff160361178a5760006040517f1e4fbdf70000000000000000000000000000000000000000000000000000000081526004016117819190614343565b60405180910390fd5b61179381611f14565b50565b61179e611bf6565b80600660006101000a81548160ff02191690831515021790555050565b60007f80ac58cd000000000000000000000000000000000000000000000000000000007bffffffffffffffffffffffffffffffffffffffffffffffffffffffff1916827bffffffffffffffffffffffffffffffffffffffffffffffffffffffff1916148061188657507f5b5e139f000000000000000000000000000000000000000000000000000000007bffffffffffffffffffffffffffffffffffffffffffffffffffffffff1916827bffffffffffffffffffffffffffffffffffffffffffffffffffffffff1916145b80611896575061189582612597565b5b9050919050565b60007f80bb2b638cc20bc4d0a60d66940f3ab4a00c1d7b313497ca82fb0b4ab0079300905090565b6000806118d1836123ae565b9050600073ffffffffffffffffffffffffffffffffffffffff168173ffffffffffffffffffffffffffffffffffffffff160361194457826040517f7e27328900000000000000000000000000000000000000000000000000000000815260040161193b91906142e7565b60405180910390fd5b80915050919050565b60008061195861189d565b905080600401600084815260200190815260200160002060009054906101000a900473ffffffffffffffffffffffffffffffffffffffff16915050919050565b600033905090565b6119ad8383836001612601565b505050565b60007f645e039705490088daad89bae25049a34f4a9072d398537b1ab2425f24cbed00905090565b600263ffffffff1681511015611a25576040517f08c379a0000000000000000000000000000000000000000000000000000000008152600401611a1c906152c7565b60405180910390fd5b600060076000848152602001908152602001600020549050611a4781836127d5565b611a518183612d95565b611a5b8183613307565b60016005600083815260200190815260200160002060006101000a81548160ff0219169083151502179055508281611a92836123ae565b73ffffffffffffffffffffffffffffffffffffffff167ffc612aad4e70fb3e1d4832d8c65f92e4024aa87f809d131267a79bceee757f3360405160405180910390a4505050565b600080611ae7858585613476565b9050600073ffffffffffffffffffffffffffffffffffffffff168173ffffffffffffffffffffffffffffffffffffffff1603611b2b57611b26846136a3565b611b6a565b8473ffffffffffffffffffffffffffffffffffffffff168173ffffffffffffffffffffffffffffffffffffffff1614611b6957611b6881856136ff565b5b5b600073ffffffffffffffffffffffffffffffffffffffff168573ffffffffffffffffffffffffffffffffffffffff1603611bac57611ba784613879565b611beb565b8473ffffffffffffffffffffffffffffffffffffffff168173ffffffffffffffffffffffffffffffffffffffff1614611bea57611be98585613965565b5b5b809150509392505050565b611bfe611998565b73ffffffffffffffffffffffffffffffffffffffff16611c1c6110bf565b73ffffffffffffffffffffffffffffffffffffffff1614611c7b57611c3f611998565b6040517f118cdaa7000000000000000000000000000000000000000000000000000000008152600401611c729190614343565b60405180910390fd5b565b7f000000000000000000000000000000000000000000000000000000000000000073ffffffffffffffffffffffffffffffffffffffff163073ffffffffffffffffffffffffffffffffffffffff161480611d2a57507f000000000000000000000000000000000000000000000000000000000000000073ffffffffffffffffffffffffffffffffffffffff16611d11613a01565b73ffffffffffffffffffffffffffffffffffffffff1614155b15611d61576040517fe07c8dba00000000000000000000000000000000000000000000000000000000815260040160405180910390fd5b565b611d6b611bf6565b50565b8173ffffffffffffffffffffffffffffffffffffffff166352d1902d6040518163ffffffff1660e01b8152600401602060405180830381865afa925050508015611dd657506040513d601f19601f82011682018060405250810190611dd39190615313565b60015b611e1757816040517f4c9c8ce3000000000000000000000000000000000000000000000000000000008152600401611e0e9190614343565b60405180910390fd5b7f360894a13ba1a3210667c828492db98dca3e2076cc3735a920a3ca505d382bbc60001b8114611e7e57806040517faa1d49a4000000000000000000000000000000000000000000000000000000008152600401611e7591906146eb565b60405180910390fd5b611e888383613a58565b505050565b7f000000000000000000000000000000000000000000000000000000000000000073ffffffffffffffffffffffffffffffffffffffff163073ffffffffffffffffffffffffffffffffffffffff1614611f12576040517fe07c8dba00000000000000000000000000000000000000000000000000000000815260040160405180910390fd5b565b6000611f1e612051565b905060008160000160009054906101000a900473ffffffffffffffffffffffffffffffffffffffff169050828260000160006101000a81548173ffffffffffffffffffffffffffffffffffffffff021916908373ffffffffffffffffffffffffffffffffffffffff1602179055508273ffffffffffffffffffffffffffffffffffffffff168173ffffffffffffffffffffffffffffffffffffffff167f8be0079c531659141344cd1fd0a4f28419497f9722a3daafe3b4186f6b6457e060405160405180910390a3505050565b60007ff0c57e16840df040f15088dc2f81fe391c3923bec73e23a9662efc9c229c6a00905090565b61201b613acb565b6120258282613b0b565b5050565b612031613acb565b565b61203b613acb565b61204481613b48565b50565b61204f613acb565b565b60007f9016d09d72d40fdae2fd8ceac6b6234c7706214fd39c1cd1e609a0528c199300905090565b600061208361189d565b9050600073ffffffffffffffffffffffffffffffffffffffff168373ffffffffffffffffffffffffffffffffffffffff16036120f657826040517f5b08ba180000000000000000000000000000000000000000000000000000000081526004016120ed9190614343565b60405180910390fd5b818160050160008673ffffffffffffffffffffffffffffffffffffffff1673ffffffffffffffffffffffffffffffffffffffff16815260200190815260200160002060008573ffffffffffffffffffffffffffffffffffffffff1673ffffffffffffffffffffffffffffffffffffffff16815260200190815260200160002060006101000a81548160ff0219169083151502179055508273ffffffffffffffffffffffffffffffffffffffff168473ffffffffffffffffffffffffffffffffffffffff167f17307eab39ab6107e8899845ad3d59bd9653f200f220920489ca2b5937696c31846040516121e991906141a8565b60405180910390a350505050565b60008373ffffffffffffffffffffffffffffffffffffffff163b11156123a8578273ffffffffffffffffffffffffffffffffffffffff1663150b7a0261223b611998565b8685856040518563ffffffff1660e01b815260040161225d9493929190615395565b6020604051808303816000875af192505050801561229957506040513d601f19601f8201168201806040525081019061229691906153f6565b60015b61231d573d80600081146122c9576040519150601f19603f3d011682016040523d82523d6000602084013e6122ce565b606091505b50600081510361231557836040517f64a0ae9200000000000000000000000000000000000000000000000000000000815260040161230c9190614343565b60405180910390fd5b805181602001fd5b63150b7a0260e01b7bffffffffffffffffffffffffffffffffffffffffffffffffffffffff1916817bffffffffffffffffffffffffffffffffffffffffffffffffffffffff1916146123a657836040517f64a0ae9200000000000000000000000000000000000000000000000000000000815260040161239d9190614343565b60405180910390fd5b505b50505050565b6000806123b961189d565b905080600201600084815260200190815260200160002060009054906101000a900473ffffffffffffffffffffffffffffffffffffffff16915050919050565b600080600054905060006001436124109190615423565b409050600081306040516020016124289291906154c0565b604051602081830303815290604052805190602001209050600060024361244f9190615423565b409050600081306040516020016124679291906154c0565b6040516020818303038152906040528051906020012090506000600267ffffffffffffffff81111561249c5761249b6143cf565b5b6040519080825280602002602001820160405280156124ca5781602001602082028036833780820191505090505b5090508360001c816000815181106124e5576124e4614a2a565b5b6020026020010181815250508160001c8160018151811061250957612508614a2a565b5b60200260200101818152505061251f86826127d5565b6125298682612d95565b6125338682613307565b61253f33600054612579565b60016005600088815260200190815260200160002060006101000a81548160ff021916908315150217905550600054965050505050505090565b612593828260405180602001604052806000815250613bce565b5050565b60007f01ffc9a7000000000000000000000000000000000000000000000000000000007bffffffffffffffffffffffffffffffffffffffffffffffffffffffff1916827bffffffffffffffffffffffffffffffffffffffffffffffffffffffff1916149050919050565b600061260b61189d565b905081806126465750600073ffffffffffffffffffffffffffffffffffffffff168373ffffffffffffffffffffffffffffffffffffffff1614155b1561277a576000612656856118c5565b9050600073ffffffffffffffffffffffffffffffffffffffff168473ffffffffffffffffffffffffffffffffffffffff16141580156126c157508373ffffffffffffffffffffffffffffffffffffffff168173ffffffffffffffffffffffffffffffffffffffff1614155b80156126d457506126d28185611406565b155b1561271657836040517fa9fbf51f00000000000000000000000000000000000000000000000000000000815260040161270d9190614343565b60405180910390fd5b821561277857848673ffffffffffffffffffffffffffffffffffffffff168273ffffffffffffffffffffffffffffffffffffffff167f8c5be1e5ebec7d5bd14f71427d1e84f3dd0314c0f7b2291e5b200ac8c7c3b92560405160405180910390a45b505b8481600401600086815260200190815260200160002060006101000a81548173ffffffffffffffffffffffffffffffffffffffff021916908373ffffffffffffffffffffffffffffffffffffffff1602179055505050505050565b6000604051806102a001604052806040518060400160405280600681526020017f666665343939000000000000000000000000000000000000000000000000000081525081526020016040518060400160405280600681526020017f656164633961000000000000000000000000000000000000000000000000000081525081526020016040518060400160405280600681526020017f663462353862000000000000000000000000000000000000000000000000000081525081526020016040518060400160405280600681526020017f666663613537000000000000000000000000000000000000000000000000000081525081526020016040518060400160405280600681526020017f666364333033000000000000000000000000000000000000000000000000000081525081526020016040518060400160405280600681526020017f636336363030000000000000000000000000000000000000000000000000000081525081526020016040518060400160405280600681526020017f626164373238000000000000000000000000000000000000000000000000000081525081526020016040518060400160405280600681526020017f383264346236000000000000000000000000000000000000000000000000000081525081526020016040518060400160405280600681526020017f363838616262000000000000000000000000000000000000000000000000000081525081526020016040518060400160405280600681526020017f323838656437000000000000000000000000000000000000000000000000000081525081526020016040518060400160405280600681526020017f353736626362000000000000000000000000000000000000000000000000000081525081526020016040518060400160405280600681526020017f663033333436000000000000000000000000000000000000000000000000000081525081526020016040518060400160405280600681526020017f346334643464000000000000000000000000000000000000000000000000000081525081526020016040518060400160405280600681526020017f623531376137000000000000000000000000000000000000000000000000000081525081526020016040518060400160405280600681526020017f653231643666000000000000000000000000000000000000000000000000000081525081526020016040518060400160405280600681526020017f666662336362000000000000000000000000000000000000000000000000000081525081526020016040518060400160405280600681526020017f623466666164000000000000000000000000000000000000000000000000000081525081526020016040518060400160405280600681526020017f373566666466000000000000000000000000000000000000000000000000000081525081526020016040518060400160405280600681526020017f393964356666000000000000000000000000000000000000000000000000000081525081526020016040518060400160405280600681526020017f633639656666000000000000000000000000000000000000000000000000000081525081526020016040518060400160405280600681526020017f666635373730000000000000000000000000000000000000000000000000000081525081525090506000601583600081518110612cd257612cd1614a2a565b5b6020026020010151612ce491906154ec565b90506000600584600181518110612cfe57612cfd614a2a565b5b6020026020010151612d1091906154ec565b90506040518060400160405280848460158110612d3057612d2f614a2a565b5b602002015181526020018260ff16815250600260008781526020019081526020016000206000820151816000019081612d6991906156aa565b5060208201518160010160006101000a81548160ff021916908360ff1602179055509050505050505050565b60405180604001604052806040518060800160405280602761ffff168152602001602761ffff16815260200161013261ffff16815260200161015461ffff1681525081526020016040518060800160405280602761ffff168152602001602761ffff1681526020016101e661ffff16815260200161015461ffff168152508152506003600084815260200190815260200160002060008201518160000160008201518160000160006101000a81548161ffff021916908361ffff16021790555060208201518160000160026101000a81548161ffff021916908361ffff16021790555060408201518160000160046101000a81548161ffff021916908361ffff16021790555060608201518160000160066101000a81548161ffff021916908361ffff160217905550505060208201518160010160008201518160000160006101000a81548161ffff021916908361ffff16021790555060208201518160000160026101000a81548161ffff021916908361ffff16021790555060408201518160000160046101000a81548161ffff021916908361ffff16021790555060608201518160000160066101000a81548161ffff021916908361ffff16021790555050509050506000605082600081518110612f7257612f71614a2a565b5b6020026020010151612f8491906154ec565b9050600061020883600181518110612f9f57612f9e614a2a565b5b6020026020010151612fb191906154ec565b90506000600382612fc291906154ec565b036130cc57601482612fd4919061577c565b6003600086815260200190815260200160002060000160000160006101000a81548161ffff021916908361ffff160217905550601482613014919061577c565b6003600086815260200190815260200160002060000160000160026101000a81548161ffff021916908361ffff160217905550608281613054919061577c565b6003600086815260200190815260200160002060000160000160046101000a81548161ffff021916908361ffff16021790555060b481613094919061577c565b6003600086815260200190815260200160002060000160000160066101000a81548161ffff021916908361ffff160217905550613301565b60016003826130db91906154ec565b036131e5576014826130ed919061577c565b6003600086815260200190815260200160002060010160000160006101000a81548161ffff021916908361ffff16021790555060148261312d919061577c565b6003600086815260200190815260200160002060010160000160026101000a81548161ffff021916908361ffff16021790555060828161316d919061577c565b6003600086815260200190815260200160002060010160000160046101000a81548161ffff021916908361ffff16021790555060b4816131ad919061577c565b6003600086815260200190815260200160002060010160000160066101000a81548161ffff021916908361ffff160217905550613300565b60006002836131f491906154ec565b0361327e57601482613206919061577c565b6003600086815260200190815260200160002060000160000160006101000a81548161ffff021916908361ffff160217905550601482613246919061577c565b6003600086815260200190815260200160002060000160000160026101000a81548161ffff021916908361ffff1602179055506132ff565b60148261328b919061577c565b6003600086815260200190815260200160002060010160000160006101000a81548161ffff021916908361ffff1602179055506014826132cb919061577c565b6003600086815260200190815260200160002060010160000160026101000a81548161ffff021916908361ffff1602179055505b5b5b50505050565b600060328260008151811061331f5761331e614a2a565b5b602002602001015161333191906154ec565b90506000600a60148460018151811061334d5761334c614a2a565b5b602002602001015161335f91906154ec565b613369919061577c565b9050600060b48460018151811061338357613382614a2a565b5b602002602001015161339591906154ec565b60b4856000815181106133ab576133aa614a2a565b5b60200260200101516133bd91906154ec565b6133c7919061577c565b905060405180606001604052808461ffff1681526020018361ffff1681526020018261ffff168152506004600087815260200190815260200160002060008201518160000160006101000a81548161ffff021916908361ffff16021790555060208201518160000160026101000a81548161ffff021916908361ffff16021790555060408201518160000160046101000a81548161ffff021916908361ffff1602179055509050505050505050565b60008061348161189d565b9050600061348e856123ae565b9050600073ffffffffffffffffffffffffffffffffffffffff168473ffffffffffffffffffffffffffffffffffffffff16146134d0576134cf818587613bea565b5b600073ffffffffffffffffffffffffffffffffffffffff168173ffffffffffffffffffffffffffffffffffffffff161461356357613512600086600080612601565b60018260030160008373ffffffffffffffffffffffffffffffffffffffff1673ffffffffffffffffffffffffffffffffffffffff168152602001908152602001600020600082825403925050819055505b600073ffffffffffffffffffffffffffffffffffffffff168673ffffffffffffffffffffffffffffffffffffffff16146135e85760018260030160008873ffffffffffffffffffffffffffffffffffffffff1673ffffffffffffffffffffffffffffffffffffffff168152602001908152602001600020600082825401925050819055505b8582600201600087815260200190815260200160002060006101000a81548173ffffffffffffffffffffffffffffffffffffffff021916908373ffffffffffffffffffffffffffffffffffffffff160217905550848673ffffffffffffffffffffffffffffffffffffffff168273ffffffffffffffffffffffffffffffffffffffff167fddf252ad1be2c89b69c2b068fc378daa952ba7f163c4a11628f55a4df523b3ef60405160405180910390a480925050509392505050565b60006136ad6119b2565b9050806002018054905081600301600084815260200190815260200160002081905550806002018290806001815401808255809150506001900390600052602060002001600090919091909150555050565b60006137096119b2565b9050600061371684610da1565b905060008260010160008581526020019081526020016000205490508181146138035760008360000160008773ffffffffffffffffffffffffffffffffffffffff1673ffffffffffffffffffffffffffffffffffffffff1681526020019081526020016000206000848152602001908152602001600020549050808460000160008873ffffffffffffffffffffffffffffffffffffffff1673ffffffffffffffffffffffffffffffffffffffff1681526020019081526020016000206000848152602001908152602001600020819055508184600101600083815260200190815260200160002081905550505b826001016000858152602001908152602001600020600090558260000160008673ffffffffffffffffffffffffffffffffffffffff1673ffffffffffffffffffffffffffffffffffffffff1681526020019081526020016000206000838152602001908152602001600020600090555050505050565b60006138836119b2565b905060006001826002018054905061389b9190615423565b9050600082600301600085815260200190815260200160002054905060008360020183815481106138cf576138ce614a2a565b5b90600052602060002001549050808460020183815481106138f3576138f2614a2a565b5b906000526020600020018190555081846003016000838152602001908152602001600020819055508360030160008681526020019081526020016000206000905583600201805480613948576139476157b0565b5b600190038181906000526020600020016000905590555050505050565b600061396f6119b2565b90506000600161397e85610da1565b6139889190615423565b9050828260000160008673ffffffffffffffffffffffffffffffffffffffff1673ffffffffffffffffffffffffffffffffffffffff168152602001908152602001600020600083815260200190815260200160002081905550808260010160008581526020019081526020016000208190555050505050565b6000613a2f7f360894a13ba1a3210667c828492db98dca3e2076cc3735a920a3ca505d382bbc60001b613cae565b60000160009054906101000a900473ffffffffffffffffffffffffffffffffffffffff16905090565b613a6182613cb8565b8173ffffffffffffffffffffffffffffffffffffffff167fbc7cd75a20ee27fd9adebab32041f755214dbc6bffa90cc0225b39da2e5c2d3b60405160405180910390a2600081511115613abe57613ab88282613d85565b50613ac7565b613ac6613e09565b5b5050565b613ad3613e46565b613b09576040517fd7e6bcf800000000000000000000000000000000000000000000000000000000815260040160405180910390fd5b565b613b13613acb565b6000613b1d61189d565b905082816000019081613b30919061583a565b5081816001019081613b42919061583a565b50505050565b613b50613acb565b600073ffffffffffffffffffffffffffffffffffffffff168173ffffffffffffffffffffffffffffffffffffffff1603613bc25760006040517f1e4fbdf7000000000000000000000000000000000000000000000000000000008152600401613bb99190614343565b60405180910390fd5b613bcb81611f14565b50565b613bd88383613e66565b613be560008484846121f7565b505050565b613bf5838383613f5f565b613ca957600073ffffffffffffffffffffffffffffffffffffffff168373ffffffffffffffffffffffffffffffffffffffff1603613c6a57806040517f7e273289000000000000000000000000000000000000000000000000000000008152600401613c6191906142e7565b60405180910390fd5b81816040517f177e802f000000000000000000000000000000000000000000000000000000008152600401613ca092919061494f565b60405180910390fd5b505050565b6000819050919050565b60008173ffffffffffffffffffffffffffffffffffffffff163b03613d1457806040517f4c9c8ce3000000000000000000000000000000000000000000000000000000008152600401613d0b9190614343565b60405180910390fd5b80613d417f360894a13ba1a3210667c828492db98dca3e2076cc3735a920a3ca505d382bbc60001b613cae565b60000160006101000a81548173ffffffffffffffffffffffffffffffffffffffff021916908373ffffffffffffffffffffffffffffffffffffffff16021790555050565b60606000808473ffffffffffffffffffffffffffffffffffffffff1684604051613daf919061593d565b600060405180830381855af49150503d8060008114613dea576040519150601f19603f3d011682016040523d82523d6000602084013e613def565b606091505b5091509150613dff858383614020565b9250505092915050565b6000341115613e44576040517fb398979f00000000000000000000000000000000000000000000000000000000815260040160405180910390fd5b565b6000613e50611feb565b60000160089054906101000a900460ff16905090565b600073ffffffffffffffffffffffffffffffffffffffff168273ffffffffffffffffffffffffffffffffffffffff1603613ed85760006040517f64a0ae92000000000000000000000000000000000000000000000000000000008152600401613ecf9190614343565b60405180910390fd5b6000613ee683836000611ad9565b9050600073ffffffffffffffffffffffffffffffffffffffff168173ffffffffffffffffffffffffffffffffffffffff1614613f5a5760006040517f73c6ac6e000000000000000000000000000000000000000000000000000000008152600401613f519190614343565b60405180910390fd5b505050565b60008073ffffffffffffffffffffffffffffffffffffffff168373ffffffffffffffffffffffffffffffffffffffff161415801561401757508273ffffffffffffffffffffffffffffffffffffffff168473ffffffffffffffffffffffffffffffffffffffff161480613fd85750613fd78484611406565b5b8061401657508273ffffffffffffffffffffffffffffffffffffffff16613ffe8361194d565b73ffffffffffffffffffffffffffffffffffffffff16145b5b90509392505050565b60608261403557614030826140af565b6140a7565b6000825114801561405d575060008473ffffffffffffffffffffffffffffffffffffffff163b145b1561409f57836040517f9996b3150000000000000000000000000000000000000000000000000000000081526004016140969190614343565b60405180910390fd5b8190506140a8565b5b9392505050565b6000815111156140c25780518082602001fd5b6040517f1425ea4200000000000000000000000000000000000000000000000000000000815260040160405180910390fd5b6000604051905090565b600080fd5b600080fd5b60007fffffffff0000000000000000000000000000000000000000000000000000000082169050919050565b61413d81614108565b811461414857600080fd5b50565b60008135905061415a81614134565b92915050565b600060208284031215614176576141756140fe565b5b60006141848482850161414b565b91505092915050565b60008115159050919050565b6141a28161418d565b82525050565b60006020820190506141bd6000830184614199565b92915050565b600081519050919050565b600082825260208201905092915050565b60005b838110156141fd5780820151818401526020810190506141e2565b60008484015250505050565b6000601f19601f8301169050919050565b6000614225826141c3565b61422f81856141ce565b935061423f8185602086016141df565b61424881614209565b840191505092915050565b6000602082019050818103600083015261426d818461421a565b905092915050565b6000819050919050565b61428881614275565b811461429357600080fd5b50565b6000813590506142a58161427f565b92915050565b6000602082840312156142c1576142c06140fe565b5b60006142cf84828501614296565b91505092915050565b6142e181614275565b82525050565b60006020820190506142fc60008301846142d8565b92915050565b600073ffffffffffffffffffffffffffffffffffffffff82169050919050565b600061432d82614302565b9050919050565b61433d81614322565b82525050565b60006020820190506143586000830184614334565b92915050565b61436781614322565b811461437257600080fd5b50565b6000813590506143848161435e565b92915050565b600080604083850312156143a1576143a06140fe565b5b60006143af85828601614375565b92505060206143c085828601614296565b9150509250929050565b600080fd5b7f4e487b7100000000000000000000000000000000000000000000000000000000600052604160045260246000fd5b61440782614209565b810181811067ffffffffffffffff82111715614426576144256143cf565b5b80604052505050565b60006144396140f4565b905061444582826143fe565b919050565b600067ffffffffffffffff821115614465576144646143cf565b5b602082029050602081019050919050565b600080fd5b600061448e6144898461444a565b61442f565b905080838252602082019050602084028301858111156144b1576144b0614476565b5b835b818110156144da57806144c68882614296565b8452602084019350506020810190506144b3565b5050509392505050565b600082601f8301126144f9576144f86143ca565b5b813561450984826020860161447b565b91505092915050565b60008060408385031215614529576145286140fe565b5b600061453785828601614296565b925050602083013567ffffffffffffffff81111561455857614557614103565b5b614564858286016144e4565b9150509250929050565b600080600060608486031215614587576145866140fe565b5b600061459586828701614375565b93505060206145a686828701614375565b92505060406145b786828701614296565b9150509250925092565b600080fd5b600067ffffffffffffffff8211156145e1576145e06143cf565b5b6145ea82614209565b9050602081019050919050565b82818337600083830152505050565b6000614619614614846145c6565b61442f565b905082815260208101848484011115614635576146346145c1565b5b6146408482856145f7565b509392505050565b600082601f83011261465d5761465c6143ca565b5b813561466d848260208601614606565b91505092915050565b6000806040838503121561468d5761468c6140fe565b5b600061469b85828601614375565b925050602083013567ffffffffffffffff8111156146bc576146bb614103565b5b6146c885828601614648565b9150509250929050565b6000819050919050565b6146e5816146d2565b82525050565b600060208201905061470060008301846146dc565b92915050565b60006020828403121561471c5761471b6140fe565b5b600061472a84828501614375565b91505092915050565b61473c8161418d565b811461474757600080fd5b50565b60008135905061475981614733565b92915050565b60008060408385031215614776576147756140fe565b5b600061478485828601614375565b92505060206147958582860161474a565b9150509250929050565b600080600080608085870312156147b9576147b86140fe565b5b60006147c787828801614375565b94505060206147d887828801614375565b93505060406147e987828801614296565b925050606085013567ffffffffffffffff81111561480a57614809614103565b5b61481687828801614648565b91505092959194509250565b60008060408385031215614839576148386140fe565b5b600061484785828601614375565b925050602061485885828601614375565b9150509250929050565b600060208284031215614878576148776140fe565b5b60006148868482850161474a565b91505092915050565b7f4e487b7100000000000000000000000000000000000000000000000000000000600052602260045260246000fd5b600060028204905060018216806148d657607f821691505b6020821081036148e9576148e861488f565b5b50919050565b60006040820190506149046000830185614334565b6149116020830184614334565b9392505050565b600060608201905061492d6000830186614334565b61493a60208301856142d8565b6149476040830184614334565b949350505050565b60006040820190506149646000830185614334565b61497160208301846142d8565b9392505050565b600081905092915050565b50565b6000614993600083614978565b915061499e82614983565b600082019050919050565b60006149b482614986565b9150819050919050565b7f5769746864726177206661696c65640000000000000000000000000000000000600082015250565b60006149f4600f836141ce565b91506149ff826149be565b602082019050919050565b60006020820190508181036000830152614a23816149e7565b9050919050565b7f4e487b7100000000000000000000000000000000000000000000000000000000600052603260045260246000fd5b6000819050919050565b600067ffffffffffffffff82169050919050565b6000819050919050565b6000614a9c614a97614a9284614a59565b614a77565b614a63565b9050919050565b614aac81614a81565b82525050565b6000602082019050614ac76000830184614aa3565b92915050565b7f6e6f742065786973740000000000000000000000000000000000000000000000600082015250565b6000614b036009836141ce565b9150614b0e82614acd565b602082019050919050565b60006020820190508181036000830152614b3281614af6565b9050919050565b614b4281614275565b82525050565b614b5181614322565b82525050565b6000604082019050614b6c6000830185614b39565b614b796020830184614b48565b9392505050565b600067ffffffffffffffff821115614b9b57614b9a6143cf565b5b614ba482614209565b9050602081019050919050565b6000614bc4614bbf84614b80565b61442f565b905082815260208101848484011115614be057614bdf6145c1565b5b614beb8482856141df565b509392505050565b600082601f830112614c0857614c076143ca565b5b8151614c18848260208601614bb1565b91505092915050565b600060208284031215614c3757614c366140fe565b5b600082015167ffffffffffffffff811115614c5557614c54614103565b5b614c6184828501614bf3565b91505092915050565b600082825260208201905092915050565b60008190508160005260206000209050919050565b60008154614c9d816148be565b614ca78186614c6a565b94506001821660008114614cc25760018114614cd857614d0b565b60ff198316865281151560200286019350614d0b565b614ce185614c7b565b60005b83811015614d0357815481890152600182019150602081019050614ce4565b808801955050505b50505092915050565b60008160001c9050919050565b600060ff82169050919050565b6000614d41614d3c83614d14565b614d21565b9050919050565b600060ff82169050919050565b614d5e81614d48565b82525050565b60006040830160008084018583036000870152614d818382614c90565b92505060018401549050614d9481614d2e565b614da16020870182614d55565b50819250505092915050565b600061ffff82169050919050565b6000614dce614dc983614d14565b614dad565b9050919050565b600061ffff82169050919050565b614dec81614dd5565b82525050565b60008160101c9050919050565b6000614e12614e0d83614df2565b614dad565b9050919050565b60008160201c9050919050565b6000614e39614e3483614e19565b614dad565b9050919050565b60008160301c9050919050565b6000614e60614e5b83614e40565b614dad565b9050919050565b608082016000808301549050614e7c81614dbb565b614e896000860182614de3565b50614e9381614dff565b614ea06020860182614de3565b50614eaa81614e26565b614eb76040860182614de3565b50614ec181614e4d565b614ece6060860182614de3565b5050505050565b61010082016000808301614eec6000860182614e67565b5060018301614efe6080860182614e67565b5050505050565b606082016000808301549050614f1a81614dbb565b614f276000860182614de3565b50614f3181614dff565b614f3e6020860182614de3565b50614f4881614e26565b614f556040860182614de3565b5050505050565b60006101c082019050614f726000830188614b39565b614f7f6020830187614b48565b8181036040830152614f918186614d64565b9050614fa06060830185614ed5565b614fae610160830184614f05565b9695505050505050565b7f444f4e45204d494e54494e470000000000000000000000000000000000000000600082015250565b6000614fee600c836141ce565b9150614ff982614fb8565b602082019050919050565b6000602082019050818103600083015261501d81614fe1565b9050919050565b7f4e4f5420454e4f55474800000000000000000000000000000000000000000000600082015250565b600061505a600a836141ce565b915061506582615024565b602082019050919050565b600060208201905081810360008301526150898161504d565b9050919050565b7f4e487b7100000000000000000000000000000000000000000000000000000000600052601160045260246000fd5b60006150ca82614275565b91506150d583614275565b92508282026150e381614275565b915082820484148315176150fa576150f9615090565b5b5092915050565b7f4e487b7100000000000000000000000000000000000000000000000000000000600052601260045260246000fd5b600061513b82614275565b915061514683614275565b92508261515657615155615101565b5b828204905092915050565b600061516c82614275565b91507fffffffffffffffffffffffffffffffffffffffffffffffffffffffffffffffff820361519e5761519d615090565b5b600182019050919050565b6151b281614a63565b82525050565b6151c181614dd5565b82525050565b600063ffffffff82169050919050565b6151e0816151c7565b82525050565b600060a0820190506151fb60008301886146dc565b61520860208301876151a9565b61521560408301866151b8565b61522260608301856151d7565b61522f60808301846151d7565b9695505050505050565b6000815190506152488161427f565b92915050565b600060208284031215615264576152636140fe565b5b600061527284828501615239565b91505092915050565b7f4e6f7420656e6f7567682072616e646f6d206e756d6265727300000000000000600082015250565b60006152b16019836141ce565b91506152bc8261527b565b602082019050919050565b600060208201905081810360008301526152e0816152a4565b9050919050565b6152f0816146d2565b81146152fb57600080fd5b50565b60008151905061530d816152e7565b92915050565b600060208284031215615329576153286140fe565b5b6000615337848285016152fe565b91505092915050565b600081519050919050565b600082825260208201905092915050565b600061536782615340565b615371818561534b565b93506153818185602086016141df565b61538a81614209565b840191505092915050565b60006080820190506153aa6000830187614334565b6153b76020830186614334565b6153c460408301856142d8565b81810360608301526153d6818461535c565b905095945050505050565b6000815190506153f081614134565b92915050565b60006020828403121561540c5761540b6140fe565b5b600061541a848285016153e1565b91505092915050565b600061542e82614275565b915061543983614275565b925082820390508181111561545157615450615090565b5b92915050565b6000819050919050565b61547261546d826146d2565b615457565b82525050565b60008160601b9050919050565b600061549082615478565b9050919050565b60006154a282615485565b9050919050565b6154ba6154b582614322565b615497565b82525050565b60006154cc8285615461565b6020820191506154dc82846154a9565b6014820191508190509392505050565b60006154f782614275565b915061550283614275565b92508261551257615511615101565b5b828206905092915050565b60006020601f8301049050919050565b600082821b905092915050565b60006008830261556a7fffffffffffffffffffffffffffffffffffffffffffffffffffffffffffffffff8261552d565b615574868361552d565b95508019841693508086168417925050509392505050565b60006155a76155a261559d84614275565b614a77565b614275565b9050919050565b6000819050919050565b6155c18361558c565b6155d56155cd826155ae565b84845461553a565b825550505050565b600090565b6155ea6155dd565b6155f58184846155b8565b505050565b5b818110156156195761560e6000826155e2565b6001810190506155fb565b5050565b601f82111561565e5761562f81614c7b565b6156388461551d565b81016020851015615647578190505b61565b6156538561551d565b8301826155fa565b50505b505050565b600082821c905092915050565b600061568160001984600802615663565b1980831691505092915050565b600061569a8383615670565b9150826002028217905092915050565b6156b382615340565b67ffffffffffffffff8111156156cc576156cb6143cf565b5b6156d682546148be565b6156e182828561561d565b600060209050601f8311600181146157145760008415615702578287015190505b61570c858261568e565b865550615774565b601f19841661572286614c7b565b60005b8281101561574a57848901518255600182019150602085019450602081019050615725565b868310156157675784890151615763601f891682615670565b8355505b6001600288020188555050505b505050505050565b600061578782614275565b915061579283614275565b92508282019050808211156157aa576157a9615090565b5b92915050565b7f4e487b7100000000000000000000000000000000000000000000000000000000600052603160045260246000fd5b60008190508160005260206000209050919050565b601f82111561583557615806816157df565b61580f8461551d565b8101602085101561581e578190505b61583261582a8561551d565b8301826155fa565b50505b505050565b615843826141c3565b67ffffffffffffffff81111561585c5761585b6143cf565b5b61586682546148be565b6158718282856157f4565b600060209050601f8311600181146158a45760008415615892578287015190505b61589c858261568e565b865550615904565b601f1984166158b2866157df565b60005b828110156158da578489015182556001820191506020850194506020810190506158b5565b868310156158f757848901516158f3601f891682615670565b8355505b6001600288020188555050505b505050505050565b600061591782615340565b6159218185614978565b93506159318185602086016141df565b80840191505092915050565b6000615949828461590c565b91508190509291505056fea2646970667358221220acf369dec9ad262e2ba106a6fbc064fc0739bde6a3bdbd5c2da224c43186a4c364736f6c63430008140033",
  "libraries": {
    "SvgEmoji": "0x4e401fcb736433733025FA7A725686c221FA6f53"
  },
  "devdoc": {
    "errors": {
      "AddressEmptyCode(address)": [
        {
          "details": "There's no code at `target` (it is not a contract)."
        }
      ],
      "ERC1967InvalidImplementation(address)": [
        {
          "details": "The `implementation` of the proxy is invalid."
        }
      ],
      "ERC1967NonPayable()": [
        {
          "details": "An upgrade function sees `msg.value > 0` that may be lost."
        }
      ],
      "ERC721EnumerableForbiddenBatchMint()": [
        {
          "details": "Batch mint is not allowed."
        }
      ],
      "ERC721IncorrectOwner(address,uint256,address)": [
        {
          "details": "Indicates an error related to the ownership over a particular token. Used in transfers.",
          "params": {
            "owner": "Address of the current owner of a token.",
            "sender": "Address whose tokens are being transferred.",
            "tokenId": "Identifier number of a token."
          }
        }
      ],
      "ERC721InsufficientApproval(address,uint256)": [
        {
          "details": "Indicates a failure with the `operator`s approval. Used in transfers.",
          "params": {
            "operator": "Address that may be allowed to operate on tokens without being their owner.",
            "tokenId": "Identifier number of a token."
          }
        }
      ],
      "ERC721InvalidApprover(address)": [
        {
          "details": "Indicates a failure with the `approver` of a token to be approved. Used in approvals.",
          "params": {
            "approver": "Address initiating an approval operation."
          }
        }
      ],
      "ERC721InvalidOperator(address)": [
        {
          "details": "Indicates a failure with the `operator` to be approved. Used in approvals.",
          "params": {
            "operator": "Address that may be allowed to operate on tokens without being their owner."
          }
        }
      ],
      "ERC721InvalidOwner(address)": [
        {
          "details": "Indicates that an address can't be an owner. For example, `address(0)` is a forbidden owner in EIP-20. Used in balance queries.",
          "params": {
            "owner": "Address of the current owner of a token."
          }
        }
      ],
      "ERC721InvalidReceiver(address)": [
        {
          "details": "Indicates a failure with the token `receiver`. Used in transfers.",
          "params": {
            "receiver": "Address to which tokens are being transferred."
          }
        }
      ],
      "ERC721InvalidSender(address)": [
        {
          "details": "Indicates a failure with the token `sender`. Used in transfers.",
          "params": {
            "sender": "Address whose tokens are being transferred."
          }
        }
      ],
      "ERC721NonexistentToken(uint256)": [
        {
          "details": "Indicates a `tokenId` whose `owner` is the zero address.",
          "params": {
            "tokenId": "Identifier number of a token."
          }
        }
      ],
      "ERC721OutOfBoundsIndex(address,uint256)": [
        {
          "details": "An `owner`'s token query was out of bounds for `index`. NOTE: The owner being `address(0)` indicates a global out of bounds index."
        }
      ],
      "FailedInnerCall()": [
        {
          "details": "A call to an address target failed. The target may have reverted."
        }
      ],
      "InvalidInitialization()": [
        {
          "details": "The contract is already initialized."
        }
      ],
      "NotInitializing()": [
        {
          "details": "The contract is not initializing."
        }
      ],
      "OwnableInvalidOwner(address)": [
        {
          "details": "The owner is not a valid owner account. (eg. `address(0)`)"
        }
      ],
      "OwnableUnauthorizedAccount(address)": [
        {
          "details": "The caller account is not authorized to perform an operation."
        }
      ],
      "UUPSUnauthorizedCallContext()": [
        {
          "details": "The call is from an unauthorized context."
        }
      ],
      "UUPSUnsupportedProxiableUUID(bytes32)": [
        {
          "details": "The storage `slot` is unsupported as a UUID."
        }
      ]
    },
    "events": {
      "Approval(address,address,uint256)": {
        "details": "Emitted when `owner` enables `approved` to manage the `tokenId` token."
      },
      "ApprovalForAll(address,address,bool)": {
        "details": "Emitted when `owner` enables or disables (`approved`) `operator` to manage all of its assets."
      },
      "Initialized(uint64)": {
        "details": "Triggered when the contract has been initialized or reinitialized."
      },
      "Transfer(address,address,uint256)": {
        "details": "Emitted when `tokenId` token is transferred from `from` to `to`."
      },
      "Upgraded(address)": {
        "details": "Emitted when the implementation is upgraded."
      }
    },
    "kind": "dev",
    "methods": {
      "approve(address,uint256)": {
        "details": "See {IERC721-approve}."
      },
      "balanceOf(address)": {
        "details": "See {IERC721-balanceOf}."
      },
      "getApproved(uint256)": {
        "details": "See {IERC721-getApproved}."
      },
      "isApprovedForAll(address,address)": {
        "details": "See {IERC721-isApprovedForAll}."
      },
      "name()": {
        "details": "See {IERC721Metadata-name}."
      },
      "owner()": {
        "details": "Returns the address of the current owner."
      },
      "ownerOf(uint256)": {
        "details": "See {IERC721-ownerOf}."
      },
      "proxiableUUID()": {
        "details": "Implementation of the ERC1822 {proxiableUUID} function. This returns the storage slot used by the implementation. It is used to validate the implementation's compatibility when performing an upgrade. IMPORTANT: A proxy pointing at a proxiable contract should not be considered proxiable itself, because this risks bricking a proxy that upgrades to it, by delegating to itself until out of gas. Thus it is critical that this function revert if invoked through a proxy. This is guaranteed by the `notDelegated` modifier."
      },
      "renounceOwnership()": {
        "details": "Leaves the contract without owner. It will not be possible to call `onlyOwner` functions. Can only be called by the current owner. NOTE: Renouncing ownership will leave the contract without an owner, thereby disabling any functionality that is only available to the owner."
      },
      "safeTransferFrom(address,address,uint256)": {
        "details": "See {IERC721-safeTransferFrom}."
      },
      "safeTransferFrom(address,address,uint256,bytes)": {
        "details": "See {IERC721-safeTransferFrom}."
      },
      "setApprovalForAll(address,bool)": {
        "details": "See {IERC721-setApprovalForAll}."
      },
      "supportsInterface(bytes4)": {
        "details": "See {IERC165-supportsInterface}."
      },
      "symbol()": {
        "details": "See {IERC721Metadata-symbol}."
      },
      "tokenByIndex(uint256)": {
        "details": "See {IERC721Enumerable-tokenByIndex}."
      },
      "tokenOfOwnerByIndex(address,uint256)": {
        "details": "See {IERC721Enumerable-tokenOfOwnerByIndex}."
      },
      "totalSupply()": {
        "details": "See {IERC721Enumerable-totalSupply}."
      },
      "transferFrom(address,address,uint256)": {
        "details": "See {IERC721-transferFrom}."
      },
      "transferOwnership(address)": {
        "details": "Transfers ownership of the contract to a new account (`newOwner`). Can only be called by the current owner."
      },
      "upgradeToAndCall(address,bytes)": {
        "custom:oz-upgrades-unsafe-allow-reachable": "delegatecall",
        "details": "Upgrade the implementation of the proxy to `newImplementation`, and subsequently execute the function call encoded in `data`. Calls {_authorizeUpgrade}. Emits an {Upgraded} event."
      }
    },
    "version": 1
  },
  "userdoc": {
    "kind": "user",
    "methods": {},
    "version": 1
  },
  "storageLayout": {
    "storage": [
      {
        "astId": 6397,
        "contract": "contracts/SvgEmojiNFT.sol:SvgEmojiNFT",
        "label": "_tokenIds",
        "offset": 0,
        "slot": "0",
        "type": "t_uint256"
      },
      {
        "astId": 6405,
        "contract": "contracts/SvgEmojiNFT.sol:SvgEmojiNFT",
        "label": "price",
        "offset": 0,
        "slot": "1",
        "type": "t_uint256"
      },
      {
        "astId": 6410,
        "contract": "contracts/SvgEmojiNFT.sol:SvgEmojiNFT",
        "label": "headMap",
        "offset": 0,
        "slot": "2",
        "type": "t_mapping(t_uint256,t_struct(HeadInfo)5131_storage)"
      },
      {
        "astId": 6415,
        "contract": "contracts/SvgEmojiNFT.sol:SvgEmojiNFT",
        "label": "eyesMap",
        "offset": 0,
        "slot": "3",
        "type": "t_mapping(t_uint256,t_struct(EyesInfo)5138_storage)"
      },
      {
        "astId": 6420,
        "contract": "contracts/SvgEmojiNFT.sol:SvgEmojiNFT",
        "label": "mouthMap",
        "offset": 0,
        "slot": "4",
        "type": "t_mapping(t_uint256,t_struct(MouthInfo)5154_storage)"
      },
      {
        "astId": 6424,
        "contract": "contracts/SvgEmojiNFT.sol:SvgEmojiNFT",
        "label": "tokenIdMinted",
        "offset": 0,
        "slot": "5",
        "type": "t_mapping(t_uint256,t_bool)"
      },
      {
        "astId": 6426,
        "contract": "contracts/SvgEmojiNFT.sol:SvgEmojiNFT",
        "label": "useVRF",
        "offset": 0,
        "slot": "6",
        "type": "t_bool"
      },
      {
        "astId": 6445,
        "contract": "contracts/SvgEmojiNFT.sol:SvgEmojiNFT",
        "label": "requestIdToTokenId",
        "offset": 0,
        "slot": "7",
        "type": "t_mapping(t_uint256,t_uint256)"
      }
    ],
    "types": {
      "t_bool": {
        "encoding": "inplace",
        "label": "bool",
        "numberOfBytes": "1"
      },
      "t_bytes_storage": {
        "encoding": "bytes",
        "label": "bytes",
        "numberOfBytes": "32"
      },
      "t_mapping(t_uint256,t_bool)": {
        "encoding": "mapping",
        "key": "t_uint256",
        "label": "mapping(uint256 => bool)",
        "numberOfBytes": "32",
        "value": "t_bool"
      },
      "t_mapping(t_uint256,t_struct(EyesInfo)5138_storage)": {
        "encoding": "mapping",
        "key": "t_uint256",
        "label": "mapping(uint256 => struct Defs.EyesInfo)",
        "numberOfBytes": "32",
        "value": "t_struct(EyesInfo)5138_storage"
      },
      "t_mapping(t_uint256,t_struct(HeadInfo)5131_storage)": {
        "encoding": "mapping",
        "key": "t_uint256",
        "label": "mapping(uint256 => struct Defs.HeadInfo)",
        "numberOfBytes": "32",
        "value": "t_struct(HeadInfo)5131_storage"
      },
      "t_mapping(t_uint256,t_struct(MouthInfo)5154_storage)": {
        "encoding": "mapping",
        "key": "t_uint256",
        "label": "mapping(uint256 => struct Defs.MouthInfo)",
        "numberOfBytes": "32",
        "value": "t_struct(MouthInfo)5154_storage"
      },
      "t_mapping(t_uint256,t_uint256)": {
        "encoding": "mapping",
        "key": "t_uint256",
        "label": "mapping(uint256 => uint256)",
        "numberOfBytes": "32",
        "value": "t_uint256"
      },
      "t_struct(EyeInfo)5147_storage": {
        "encoding": "inplace",
        "label": "struct Defs.EyeInfo",
        "members": [
          {
            "astId": 5140,
            "contract": "contracts/SvgEmojiNFT.sol:SvgEmojiNFT",
            "label": "rx",
            "offset": 0,
            "slot": "0",
            "type": "t_uint16"
          },
          {
            "astId": 5142,
            "contract": "contracts/SvgEmojiNFT.sol:SvgEmojiNFT",
            "label": "ry",
            "offset": 2,
            "slot": "0",
            "type": "t_uint16"
          },
          {
            "astId": 5144,
            "contract": "contracts/SvgEmojiNFT.sol:SvgEmojiNFT",
            "label": "cx",
            "offset": 4,
            "slot": "0",
            "type": "t_uint16"
          },
          {
            "astId": 5146,
            "contract": "contracts/SvgEmojiNFT.sol:SvgEmojiNFT",
            "label": "cy",
            "offset": 6,
            "slot": "0",
            "type": "t_uint16"
          }
        ],
        "numberOfBytes": "32"
      },
      "t_struct(EyesInfo)5138_storage": {
        "encoding": "inplace",
        "label": "struct Defs.EyesInfo",
        "members": [
          {
            "astId": 5134,
            "contract": "contracts/SvgEmojiNFT.sol:SvgEmojiNFT",
            "label": "left",
            "offset": 0,
            "slot": "0",
            "type": "t_struct(EyeInfo)5147_storage"
          },
          {
            "astId": 5137,
            "contract": "contracts/SvgEmojiNFT.sol:SvgEmojiNFT",
            "label": "right",
            "offset": 0,
            "slot": "1",
            "type": "t_struct(EyeInfo)5147_storage"
          }
        ],
        "numberOfBytes": "64"
      },
      "t_struct(HeadInfo)5131_storage": {
        "encoding": "inplace",
        "label": "struct Defs.HeadInfo",
        "members": [
          {
            "astId": 5128,
            "contract": "contracts/SvgEmojiNFT.sol:SvgEmojiNFT",
            "label": "color",
            "offset": 0,
            "slot": "0",
            "type": "t_bytes_storage"
          },
          {
            "astId": 5130,
            "contract": "contracts/SvgEmojiNFT.sol:SvgEmojiNFT",
            "label": "shape",
            "offset": 0,
            "slot": "1",
            "type": "t_uint8"
          }
        ],
        "numberOfBytes": "64"
      },
      "t_struct(MouthInfo)5154_storage": {
        "encoding": "inplace",
        "label": "struct Defs.MouthInfo",
        "members": [
          {
            "astId": 5149,
            "contract": "contracts/SvgEmojiNFT.sol:SvgEmojiNFT",
            "label": "size",
            "offset": 0,
            "slot": "0",
            "type": "t_uint16"
          },
          {
            "astId": 5151,
            "contract": "contracts/SvgEmojiNFT.sol:SvgEmojiNFT",
            "label": "width",
            "offset": 2,
            "slot": "0",
            "type": "t_uint16"
          },
          {
            "astId": 5153,
            "contract": "contracts/SvgEmojiNFT.sol:SvgEmojiNFT",
            "label": "rotation",
            "offset": 4,
            "slot": "0",
            "type": "t_uint16"
          }
        ],
        "numberOfBytes": "32"
      },
      "t_uint16": {
        "encoding": "inplace",
        "label": "uint16",
        "numberOfBytes": "2"
      },
      "t_uint256": {
        "encoding": "inplace",
        "label": "uint256",
        "numberOfBytes": "32"
      },
      "t_uint8": {
        "encoding": "inplace",
        "label": "uint8",
        "numberOfBytes": "1"
      }
    }
  }
}