{
  "address": "0xB54CEa735b459d42505f874bf6Ff27d2029Bd1D6",
  "abi": [
    {
      "inputs": [
        {
          "internalType": "address",
          "name": "nftAddress",
          "type": "address"
        }
      ],
      "stateMutability": "nonpayable",
      "type": "constructor"
    },
    {
      "inputs": [
        {
          "internalType": "address",
          "name": "target",
          "type": "address"
        }
      ],
      "name": "AddressEmptyCode",
      "type": "error"
    },
    {
      "inputs": [
        {
          "internalType": "address",
          "name": "implementation",
          "type": "address"
        }
      ],
      "name": "ERC1967InvalidImplementation",
      "type": "error"
    },
    {
      "inputs": [],
      "name": "ERC1967NonPayable",
      "type": "error"
    },
    {
      "inputs": [],
      "name": "FailedInnerCall",
      "type": "error"
    },
    {
      "inputs": [],
      "name": "InvalidInitialization",
      "type": "error"
    },
    {
      "inputs": [],
      "name": "NotInitializing",
      "type": "error"
    },
    {
      "inputs": [
        {
          "internalType": "address",
          "name": "owner",
          "type": "address"
        }
      ],
      "name": "OwnableInvalidOwner",
      "type": "error"
    },
    {
      "inputs": [
        {
          "internalType": "address",
          "name": "account",
          "type": "address"
        }
      ],
      "name": "OwnableUnauthorizedAccount",
      "type": "error"
    },
    {
      "inputs": [
        {
          "internalType": "uint256",
          "name": "amount",
          "type": "uint256"
        },
        {
          "internalType": "uint256",
          "name": "price",
          "type": "uint256"
        }
      ],
      "name": "SwapNFT__InsufficientEth",
      "type": "error"
    },
    {
      "inputs": [
        {
          "internalType": "uint256",
          "name": "tokenId",
          "type": "uint256"
        }
      ],
      "name": "SwapNFT__NotApproved",
      "type": "error"
    },
    {
      "inputs": [
        {
          "internalType": "uint256",
          "name": "tokenId",
          "type": "uint256"
        }
      ],
      "name": "SwapNFT__NotTokenOwner",
      "type": "error"
    },
    {
      "inputs": [
        {
          "internalType": "address",
          "name": "owner",
          "type": "address"
        },
        {
          "internalType": "uint256",
          "name": "index",
          "type": "uint256"
        }
      ],
      "name": "SwapNFT__OutOfBoundsIndex",
      "type": "error"
    },
    {
      "inputs": [
        {
          "internalType": "uint256",
          "name": "price",
          "type": "uint256"
        }
      ],
      "name": "SwapNFT__PriceInvalid",
      "type": "error"
    },
    {
      "inputs": [
        {
          "internalType": "uint256",
          "name": "tokenId",
          "type": "uint256"
        }
      ],
      "name": "SwapNFT__TokenNotList",
      "type": "error"
    },
    {
      "inputs": [
        {
          "internalType": "uint256",
          "name": "amount",
          "type": "uint256"
        },
        {
          "internalType": "address",
          "name": "to",
          "type": "address"
        }
      ],
      "name": "SwapNFT__TransferEthFailed",
      "type": "error"
    },
    {
      "inputs": [],
      "name": "UUPSUnauthorizedCallContext",
      "type": "error"
    },
    {
      "inputs": [
        {
          "internalType": "bytes32",
          "name": "slot",
          "type": "bytes32"
        }
      ],
      "name": "UUPSUnsupportedProxiableUUID",
      "type": "error"
    },
    {
      "anonymous": false,
      "inputs": [
        {
          "indexed": false,
          "internalType": "uint64",
          "name": "version",
          "type": "uint64"
        }
      ],
      "name": "Initialized",
      "type": "event"
    },
    {
      "anonymous": false,
      "inputs": [
        {
          "indexed": true,
          "internalType": "address",
          "name": "seller",
          "type": "address"
        },
        {
          "indexed": true,
          "internalType": "uint256",
          "name": "tokenId",
          "type": "uint256"
        },
        {
          "indexed": false,
          "internalType": "uint256",
          "name": "price",
          "type": "uint256"
        }
      ],
      "name": "List",
      "type": "event"
    },
    {
      "anonymous": false,
      "inputs": [
        {
          "indexed": true,
          "internalType": "address",
          "name": "previousOwner",
          "type": "address"
        },
        {
          "indexed": true,
          "internalType": "address",
          "name": "newOwner",
          "type": "address"
        }
      ],
      "name": "OwnershipTransferred",
      "type": "event"
    },
    {
      "anonymous": false,
      "inputs": [
        {
          "indexed": true,
          "internalType": "address",
          "name": "buyer",
          "type": "address"
        },
        {
          "indexed": true,
          "internalType": "uint256",
          "name": "tokenId",
          "type": "uint256"
        },
        {
          "indexed": false,
          "internalType": "uint256",
          "name": "price",
          "type": "uint256"
        }
      ],
      "name": "Purchase",
      "type": "event"
    },
    {
      "anonymous": false,
      "inputs": [
        {
          "indexed": true,
          "internalType": "address",
          "name": "seller",
          "type": "address"
        },
        {
          "indexed": true,
          "internalType": "uint256",
          "name": "tokenId",
          "type": "uint256"
        }
      ],
      "name": "Revoke",
      "type": "event"
    },
    {
      "anonymous": false,
      "inputs": [
        {
          "indexed": true,
          "internalType": "address",
          "name": "seller",
          "type": "address"
        },
        {
          "indexed": true,
          "internalType": "uint256",
          "name": "tokenId",
          "type": "uint256"
        },
        {
          "indexed": false,
          "internalType": "uint256",
          "name": "newPrice",
          "type": "uint256"
        }
      ],
      "name": "Update",
      "type": "event"
    },
    {
      "anonymous": false,
      "inputs": [
        {
          "indexed": true,
          "internalType": "address",
          "name": "implementation",
          "type": "address"
        }
      ],
      "name": "Upgraded",
      "type": "event"
    },
    {
      "inputs": [],
      "name": "UPGRADE_INTERFACE_VERSION",
      "outputs": [
        {
          "internalType": "string",
          "name": "",
          "type": "string"
        }
      ],
      "stateMutability": "view",
      "type": "function"
    },
    {
      "inputs": [
        {
          "internalType": "address",
          "name": "owner",
          "type": "address"
        },
        {
          "internalType": "uint256",
          "name": "index",
          "type": "uint256"
        }
      ],
      "name": "_ownedTokens",
      "outputs": [
        {
          "internalType": "uint256",
          "name": "",
          "type": "uint256"
        }
      ],
      "stateMutability": "view",
      "type": "function"
    },
    {
      "inputs": [
        {
          "internalType": "uint256",
          "name": "tokenId",
          "type": "uint256"
        }
      ],
      "name": "_ownedTokensIndex",
      "outputs": [
        {
          "internalType": "uint256",
          "name": "",
          "type": "uint256"
        }
      ],
      "stateMutability": "view",
      "type": "function"
    },
    {
      "inputs": [],
      "name": "initialize",
      "outputs": [],
      "stateMutability": "nonpayable",
      "type": "function"
    },
    {
      "inputs": [
        {
          "internalType": "uint256",
          "name": "_tokenId",
          "type": "uint256"
        },
        {
          "internalType": "uint256",
          "name": "_price",
          "type": "uint256"
        }
      ],
      "name": "list",
      "outputs": [],
      "stateMutability": "nonpayable",
      "type": "function"
    },
    {
      "inputs": [],
      "name": "nft",
      "outputs": [
        {
          "internalType": "contract IERC721",
          "name": "",
          "type": "address"
        }
      ],
      "stateMutability": "view",
      "type": "function"
    },
    {
      "inputs": [
        {
          "internalType": "address",
          "name": "",
          "type": "address"
        },
        {
          "internalType": "address",
          "name": "",
          "type": "address"
        },
        {
          "internalType": "uint256",
          "name": "",
          "type": "uint256"
        },
        {
          "internalType": "bytes",
          "name": "",
          "type": "bytes"
        }
      ],
      "name": "onERC721Received",
      "outputs": [
        {
          "internalType": "bytes4",
          "name": "",
          "type": "bytes4"
        }
      ],
      "stateMutability": "pure",
      "type": "function"
    },
    {
      "inputs": [
        {
          "internalType": "uint256",
          "name": "",
          "type": "uint256"
        }
      ],
      "name": "orderMap",
      "outputs": [
        {
          "internalType": "address",
          "name": "owner",
          "type": "address"
        },
        {
          "internalType": "uint256",
          "name": "price",
          "type": "uint256"
        }
      ],
      "stateMutability": "view",
      "type": "function"
    },
    {
      "inputs": [],
      "name": "owner",
      "outputs": [
        {
          "internalType": "address",
          "name": "",
          "type": "address"
        }
      ],
      "stateMutability": "view",
      "type": "function"
    },
    {
      "inputs": [],
      "name": "proxiableUUID",
      "outputs": [
        {
          "internalType": "bytes32",
          "name": "",
          "type": "bytes32"
        }
      ],
      "stateMutability": "view",
      "type": "function"
    },
    {
      "inputs": [
        {
          "internalType": "uint256",
          "name": "_tokenId",
          "type": "uint256"
        }
      ],
      "name": "purchase",
      "outputs": [],
      "stateMutability": "payable",
      "type": "function"
    },
    {
      "inputs": [],
      "name": "renounceOwnership",
      "outputs": [],
      "stateMutability": "nonpayable",
      "type": "function"
    },
    {
      "inputs": [
        {
          "internalType": "uint256",
          "name": "_tokenId",
          "type": "uint256"
        }
      ],
      "name": "revoke",
      "outputs": [],
      "stateMutability": "nonpayable",
      "type": "function"
    },
    {
      "inputs": [
        {
          "internalType": "address",
          "name": "owner",
          "type": "address"
        },
        {
          "internalType": "uint256",
          "name": "index",
          "type": "uint256"
        }
      ],
      "name": "tokenOfOwnerByIndex",
      "outputs": [
        {
          "internalType": "uint256",
          "name": "",
          "type": "uint256"
        }
      ],
      "stateMutability": "view",
      "type": "function"
    },
    {
      "inputs": [
        {
          "internalType": "address",
          "name": "newOwner",
          "type": "address"
        }
      ],
      "name": "transferOwnership",
      "outputs": [],
      "stateMutability": "nonpayable",
      "type": "function"
    },
    {
      "inputs": [
        {
          "internalType": "uint256",
          "name": "_tokenId",
          "type": "uint256"
        },
        {
          "internalType": "uint256",
          "name": "_newPrice",
          "type": "uint256"
        }
      ],
      "name": "update",
      "outputs": [],
      "stateMutability": "nonpayable",
      "type": "function"
    },
    {
      "inputs": [
        {
          "internalType": "address",
          "name": "newImplementation",
          "type": "address"
        },
        {
          "internalType": "bytes",
          "name": "data",
          "type": "bytes"
        }
      ],
      "name": "upgradeToAndCall",
      "outputs": [],
      "stateMutability": "payable",
      "type": "function"
    }
  ],
  "transactionHash": "0xe95f46954f1a26b4d6ca6e101aab875c47c0a1cab7fbc1422e6dabad10bc453b",
  "args": [
    "0xf2383D001084cc6865915aA5a6Bc921215e57feb"
  ],
  "numDeployments": 1,
  "solcInputHash": "4e35df1fd156a7641ee25ff1b0c0685b",
  "bytecode": "0x60c06040523073ffffffffffffffffffffffffffffffffffffffff1660809073ffffffffffffffffffffffffffffffffffffffff168152503480156200004457600080fd5b5060405162002d5f38038062002d5f83398181016040528101906200006a919062000251565b6200007a620000b560201b60201c565b8073ffffffffffffffffffffffffffffffffffffffff1660a08173ffffffffffffffffffffffffffffffffffffffff168152505050620002c5565b6000620000c7620001bf60201b60201c565b90508060000160089054906101000a900460ff161562000113576040517ff92ee8a900000000000000000000000000000000000000000000000000000000815260040160405180910390fd5b67ffffffffffffffff80168160000160009054906101000a900467ffffffffffffffff1667ffffffffffffffff1614620001bc5767ffffffffffffffff8160000160006101000a81548167ffffffffffffffff021916908367ffffffffffffffff1602179055507fc7f505b2f371ae2175ee4913f4499e1f2633a7b5936321eed1cdaeb6115181d267ffffffffffffffff604051620001b39190620002a8565b60405180910390a15b50565b60007ff0c57e16840df040f15088dc2f81fe391c3923bec73e23a9662efc9c229c6a00905090565b600080fd5b600073ffffffffffffffffffffffffffffffffffffffff82169050919050565b60006200021982620001ec565b9050919050565b6200022b816200020c565b81146200023757600080fd5b50565b6000815190506200024b8162000220565b92915050565b6000602082840312156200026a5762000269620001e7565b5b60006200027a848285016200023a565b91505092915050565b600067ffffffffffffffff82169050919050565b620002a28162000283565b82525050565b6000602082019050620002bf600083018462000297565b92915050565b60805160a051612a356200032a6000396000818161045d015281816105f9015281816108af01528181610aa801528181610b2701528181610cc00152818161107f015261122301526000818161178f015281816117e40152611a610152612a356000f3fe6080604052600436106100fe5760003560e01c806350fd7367116100955780638da5cb5b116100645780638da5cb5b14610313578063a2e9b4391461033e578063ad3cb1cc1461037b578063efef39a1146103a6578063f2fde38b146103c2576100fe565b806350fd73671461029157806352d1902d146102ba578063715018a6146102e55780638129fc1c146102fc576100fe565b80632fb565e8116100d15780632fb565e8146101e457806347ccca021461020d5780634f1ef286146102385780634f3c5f0614610254576100fe565b8063150b7a02146101035780631cf3cd071461014057806320c5429b1461017e5780632f745c59146101a7575b600080fd5b34801561010f57600080fd5b5061012a600480360381019061012591906121e3565b6103eb565b60405161013791906122a6565b60405180910390f35b34801561014c57600080fd5b50610167600480360381019061016291906122c1565b610400565b60405161017592919061230c565b60405180910390f35b34801561018a57600080fd5b506101a560048036038101906101a091906122c1565b610444565b005b3480156101b357600080fd5b506101ce60048036038101906101c99190612335565b610771565b6040516101db9190612375565b60405180910390f35b3480156101f057600080fd5b5061020b60048036038101906102069190612390565b610851565b005b34801561021957600080fd5b50610222610aa6565b60405161022f919061242f565b60405180910390f35b610252600480360381019061024d919061258b565b610aca565b005b34801561026057600080fd5b5061027b60048036038101906102769190612335565b610ae9565b6040516102889190612375565b60405180910390f35b34801561029d57600080fd5b506102b860048036038101906102b39190612390565b610b0e565b005b3480156102c657600080fd5b506102cf610e00565b6040516102dc9190612600565b60405180910390f35b3480156102f157600080fd5b506102fa610e33565b005b34801561030857600080fd5b50610311610e47565b005b34801561031f57600080fd5b50610328610fdd565b604051610335919061261b565b60405180910390f35b34801561034a57600080fd5b50610365600480360381019061036091906122c1565b611015565b6040516103729190612375565b60405180910390f35b34801561038757600080fd5b5061039061102d565b60405161039d91906126b5565b60405180910390f35b6103c060048036038101906103bb91906122c1565b611066565b005b3480156103ce57600080fd5b506103e960048036038101906103e491906126d7565b61156f565b005b600063150b7a0260e01b905095945050505050565b60006020528060005260406000206000915090508060000160009054906101000a900473ffffffffffffffffffffffffffffffffffffffff16908060010154905082565b3073ffffffffffffffffffffffffffffffffffffffff167f000000000000000000000000000000000000000000000000000000000000000073ffffffffffffffffffffffffffffffffffffffff16636352211e836040518263ffffffff1660e01b81526004016104b49190612375565b602060405180830381865afa1580156104d1573d6000803e3d6000fd5b505050506040513d601f19601f820116820180604052508101906104f59190612719565b73ffffffffffffffffffffffffffffffffffffffff161461054d57806040517fa1240cb50000000000000000000000000000000000000000000000000000000081526004016105449190612375565b60405180910390fd5b600080600083815260200190815260200160002090503373ffffffffffffffffffffffffffffffffffffffff168160000160009054906101000a900473ffffffffffffffffffffffffffffffffffffffff1673ffffffffffffffffffffffffffffffffffffffff16146105f757816040517f12b87a790000000000000000000000000000000000000000000000000000000081526004016105ee9190612375565b60405180910390fd5b7f000000000000000000000000000000000000000000000000000000000000000073ffffffffffffffffffffffffffffffffffffffff166342842e0e3033856040518463ffffffff1660e01b815260040161065493929190612746565b600060405180830381600087803b15801561066e57600080fd5b505af1158015610682573d6000803e3d6000fd5b50505050600360003373ffffffffffffffffffffffffffffffffffffffff1673ffffffffffffffffffffffffffffffffffffffff16815260200190815260200160002060008154809291906106d6906127ac565b9190505550600080838152602001908152602001600020600080820160006101000a81549073ffffffffffffffffffffffffffffffffffffffff02191690556001820160009055505061072933836115f5565b813373ffffffffffffffffffffffffffffffffffffffff167fec9ab91322523c899ede7830ec9bfc992b5981cdcc27b91162fb23de5791117b60405160405180910390a35050565b6000600360008473ffffffffffffffffffffffffffffffffffffffff1673ffffffffffffffffffffffffffffffffffffffff1681526020019081526020016000205482106107f85782826040517fddf7bf750000000000000000000000000000000000000000000000000000000081526004016107ef92919061230c565b60405180910390fd5b600160008473ffffffffffffffffffffffffffffffffffffffff1673ffffffffffffffffffffffffffffffffffffffff168152602001908152602001600020600083815260200190815260200160002054905092915050565b6000811161089657806040517f26d68b4000000000000000000000000000000000000000000000000000000000815260040161088d9190612375565b60405180910390fd5b3073ffffffffffffffffffffffffffffffffffffffff167f000000000000000000000000000000000000000000000000000000000000000073ffffffffffffffffffffffffffffffffffffffff16636352211e846040518263ffffffff1660e01b81526004016109069190612375565b602060405180830381865afa158015610923573d6000803e3d6000fd5b505050506040513d601f19601f820116820180604052508101906109479190612719565b73ffffffffffffffffffffffffffffffffffffffff161461099f57816040517fa1240cb50000000000000000000000000000000000000000000000000000000081526004016109969190612375565b60405180910390fd5b600080600084815260200190815260200160002090503373ffffffffffffffffffffffffffffffffffffffff168160000160009054906101000a900473ffffffffffffffffffffffffffffffffffffffff1673ffffffffffffffffffffffffffffffffffffffff1614610a4957826040517f12b87a79000000000000000000000000000000000000000000000000000000008152600401610a409190612375565b60405180910390fd5b818160010181905550823373ffffffffffffffffffffffffffffffffffffffff167f5429acfa1bb2f4dabe79b6340b7d91d801c2d985aabad7148c2476bbd9421cf884604051610a999190612375565b60405180910390a3505050565b7f000000000000000000000000000000000000000000000000000000000000000081565b610ad261178d565b610adb82611873565b610ae5828261187e565b5050565b6001602052816000526040600020602052806000526040600020600091509150505481565b3073ffffffffffffffffffffffffffffffffffffffff167f000000000000000000000000000000000000000000000000000000000000000073ffffffffffffffffffffffffffffffffffffffff1663081812fc846040518263ffffffff1660e01b8152600401610b7e9190612375565b602060405180830381865afa158015610b9b573d6000803e3d6000fd5b505050506040513d601f19601f82011682018060405250810190610bbf9190612719565b73ffffffffffffffffffffffffffffffffffffffff1614610c1757816040517f9d526d77000000000000000000000000000000000000000000000000000000008152600401610c0e9190612375565b60405180910390fd5b60008111610c5c57806040517f26d68b40000000000000000000000000000000000000000000000000000000008152600401610c539190612375565b60405180910390fd5b60008060008481526020019081526020016000209050338160000160006101000a81548173ffffffffffffffffffffffffffffffffffffffff021916908373ffffffffffffffffffffffffffffffffffffffff1602179055508181600101819055507f000000000000000000000000000000000000000000000000000000000000000073ffffffffffffffffffffffffffffffffffffffff166342842e0e3330866040518463ffffffff1660e01b8152600401610d1b93929190612746565b600060405180830381600087803b158015610d3557600080fd5b505af1158015610d49573d6000803e3d6000fd5b50505050600360003373ffffffffffffffffffffffffffffffffffffffff1673ffffffffffffffffffffffffffffffffffffffff1681526020019081526020016000206000815480929190610d9d906127d5565b9190505550610dac338461199d565b823373ffffffffffffffffffffffffffffffffffffffff167f1518ffac149698f404e82117efa8b67d99c365490eefe4e0f91856a93ca8d9c184604051610df39190612375565b60405180910390a3505050565b6000610e0a611a5f565b7f360894a13ba1a3210667c828492db98dca3e2076cc3735a920a3ca505d382bbc60001b905090565b610e3b611ae6565b610e456000611b6d565b565b6000610e51611c44565b905060008160000160089054906101000a900460ff1615905060008260000160009054906101000a900467ffffffffffffffff1690506000808267ffffffffffffffff16148015610e9f5750825b9050600060018367ffffffffffffffff16148015610ed4575060003073ffffffffffffffffffffffffffffffffffffffff163b145b905081158015610ee2575080155b15610f19576040517ff92ee8a900000000000000000000000000000000000000000000000000000000815260040160405180910390fd5b60018560000160006101000a81548167ffffffffffffffff021916908367ffffffffffffffff1602179055508315610f695760018560000160086101000a81548160ff0219169083151502179055505b610f7233611c6c565b610f7a611c80565b8315610fd65760008560000160086101000a81548160ff0219169083151502179055507fc7f505b2f371ae2175ee4913f4499e1f2633a7b5936321eed1cdaeb6115181d26001604051610fcd919061286c565b60405180910390a15b5050505050565b600080610fe8611c8a565b90508060000160009054906101000a900473ffffffffffffffffffffffffffffffffffffffff1691505090565b60026020528060005260406000206000915090505481565b6040518060400160405280600581526020017f352e302e3000000000000000000000000000000000000000000000000000000081525081565b3073ffffffffffffffffffffffffffffffffffffffff167f000000000000000000000000000000000000000000000000000000000000000073ffffffffffffffffffffffffffffffffffffffff16636352211e836040518263ffffffff1660e01b81526004016110d69190612375565b602060405180830381865afa1580156110f3573d6000803e3d6000fd5b505050506040513d601f19601f820116820180604052508101906111179190612719565b73ffffffffffffffffffffffffffffffffffffffff161461116f57806040517fa1240cb50000000000000000000000000000000000000000000000000000000081526004016111669190612375565b60405180910390fd5b6000806000838152602001908152602001600020905060008160010154116111d25780600101546040517f26d68b400000000000000000000000000000000000000000000000000000000081526004016111c99190612375565b60405180910390fd5b8060010154341015611221573481600101546040517f68fc9317000000000000000000000000000000000000000000000000000000008152600401611218929190612887565b60405180910390fd5b7f000000000000000000000000000000000000000000000000000000000000000073ffffffffffffffffffffffffffffffffffffffff166342842e0e3033856040518463ffffffff1660e01b815260040161127e93929190612746565b600060405180830381600087803b15801561129857600080fd5b505af11580156112ac573d6000803e3d6000fd5b50505050600360003373ffffffffffffffffffffffffffffffffffffffff1673ffffffffffffffffffffffffffffffffffffffff1681526020019081526020016000206000815480929190611300906127ac565b919050555060008160010154905060008260000160009054906101000a900473ffffffffffffffffffffffffffffffffffffffff1673ffffffffffffffffffffffffffffffffffffffff1682604051611358906128e1565b60006040518083038185875af1925050503d8060008114611395576040519150601f19603f3d011682016040523d82523d6000602084013e61139a565b606091505b505090508061140657818360000160009054906101000a900473ffffffffffffffffffffffffffffffffffffffff166040517fbb9966e30000000000000000000000000000000000000000000000000000000081526004016113fd9291906128f6565b60405180910390fd5b60008234611414919061291f565b905060003373ffffffffffffffffffffffffffffffffffffffff168260405161143c906128e1565b60006040518083038185875af1925050503d8060008114611479576040519150601f19603f3d011682016040523d82523d6000602084013e61147e565b606091505b50509050806114c65781336040517fbb9966e30000000000000000000000000000000000000000000000000000000081526004016114bd9291906128f6565b60405180910390fd5b600080878152602001908152602001600020600080820160006101000a81549073ffffffffffffffffffffffffffffffffffffffff02191690556001820160009055505061151433876115f5565b853373ffffffffffffffffffffffffffffffffffffffff167f12cb4648cf3058b17ceeb33e579f8b0bc269fe0843f3900b8e24b6c54871703c876001015460405161155f9190612375565b60405180910390a3505050505050565b611577611ae6565b600073ffffffffffffffffffffffffffffffffffffffff168173ffffffffffffffffffffffffffffffffffffffff16036115e95760006040517f1e4fbdf70000000000000000000000000000000000000000000000000000000081526004016115e0919061261b565b60405180910390fd5b6115f281611b6d565b50565b6000600360008473ffffffffffffffffffffffffffffffffffffffff1673ffffffffffffffffffffffffffffffffffffffff16815260200190815260200160002054905060006002600084815260200190815260200160002054905081811461171c576000600160008673ffffffffffffffffffffffffffffffffffffffff1673ffffffffffffffffffffffffffffffffffffffff168152602001908152602001600020600084815260200190815260200160002054905080600160008773ffffffffffffffffffffffffffffffffffffffff1673ffffffffffffffffffffffffffffffffffffffff168152602001908152602001600020600084815260200190815260200160002081905550816002600083815260200190815260200160002081905550505b6002600084815260200190815260200160002060009055600160008573ffffffffffffffffffffffffffffffffffffffff1673ffffffffffffffffffffffffffffffffffffffff16815260200190815260200160002060008381526020019081526020016000206000905550505050565b7f000000000000000000000000000000000000000000000000000000000000000073ffffffffffffffffffffffffffffffffffffffff163073ffffffffffffffffffffffffffffffffffffffff16148061183a57507f000000000000000000000000000000000000000000000000000000000000000073ffffffffffffffffffffffffffffffffffffffff16611821611cb2565b73ffffffffffffffffffffffffffffffffffffffff1614155b15611871576040517fe07c8dba00000000000000000000000000000000000000000000000000000000815260040160405180910390fd5b565b61187b611ae6565b50565b8173ffffffffffffffffffffffffffffffffffffffff166352d1902d6040518163ffffffff1660e01b8152600401602060405180830381865afa9250505080156118e657506040513d601f19601f820116820180604052508101906118e3919061297f565b60015b61192757816040517f4c9c8ce300000000000000000000000000000000000000000000000000000000815260040161191e919061261b565b60405180910390fd5b7f360894a13ba1a3210667c828492db98dca3e2076cc3735a920a3ca505d382bbc60001b811461198e57806040517faa1d49a40000000000000000000000000000000000000000000000000000000081526004016119859190612600565b60405180910390fd5b6119988383611d09565b505050565b60006001600360008573ffffffffffffffffffffffffffffffffffffffff1673ffffffffffffffffffffffffffffffffffffffff168152602001908152602001600020546119eb919061291f565b905081600160008573ffffffffffffffffffffffffffffffffffffffff1673ffffffffffffffffffffffffffffffffffffffff168152602001908152602001600020600083815260200190815260200160002081905550806002600084815260200190815260200160002081905550505050565b7f000000000000000000000000000000000000000000000000000000000000000073ffffffffffffffffffffffffffffffffffffffff163073ffffffffffffffffffffffffffffffffffffffff1614611ae4576040517fe07c8dba00000000000000000000000000000000000000000000000000000000815260040160405180910390fd5b565b611aee611d7c565b73ffffffffffffffffffffffffffffffffffffffff16611b0c610fdd565b73ffffffffffffffffffffffffffffffffffffffff1614611b6b57611b2f611d7c565b6040517f118cdaa7000000000000000000000000000000000000000000000000000000008152600401611b62919061261b565b60405180910390fd5b565b6000611b77611c8a565b905060008160000160009054906101000a900473ffffffffffffffffffffffffffffffffffffffff169050828260000160006101000a81548173ffffffffffffffffffffffffffffffffffffffff021916908373ffffffffffffffffffffffffffffffffffffffff1602179055508273ffffffffffffffffffffffffffffffffffffffff168173ffffffffffffffffffffffffffffffffffffffff167f8be0079c531659141344cd1fd0a4f28419497f9722a3daafe3b4186f6b6457e060405160405180910390a3505050565b60007ff0c57e16840df040f15088dc2f81fe391c3923bec73e23a9662efc9c229c6a00905090565b611c74611d84565b611c7d81611dc4565b50565b611c88611d84565b565b60007f9016d09d72d40fdae2fd8ceac6b6234c7706214fd39c1cd1e609a0528c199300905090565b6000611ce07f360894a13ba1a3210667c828492db98dca3e2076cc3735a920a3ca505d382bbc60001b611e4a565b60000160009054906101000a900473ffffffffffffffffffffffffffffffffffffffff16905090565b611d1282611e54565b8173ffffffffffffffffffffffffffffffffffffffff167fbc7cd75a20ee27fd9adebab32041f755214dbc6bffa90cc0225b39da2e5c2d3b60405160405180910390a2600081511115611d6f57611d698282611f21565b50611d78565b611d77611fa5565b5b5050565b600033905090565b611d8c611fe2565b611dc2576040517fd7e6bcf800000000000000000000000000000000000000000000000000000000815260040160405180910390fd5b565b611dcc611d84565b600073ffffffffffffffffffffffffffffffffffffffff168173ffffffffffffffffffffffffffffffffffffffff1603611e3e5760006040517f1e4fbdf7000000000000000000000000000000000000000000000000000000008152600401611e35919061261b565b60405180910390fd5b611e4781611b6d565b50565b6000819050919050565b60008173ffffffffffffffffffffffffffffffffffffffff163b03611eb057806040517f4c9c8ce3000000000000000000000000000000000000000000000000000000008152600401611ea7919061261b565b60405180910390fd5b80611edd7f360894a13ba1a3210667c828492db98dca3e2076cc3735a920a3ca505d382bbc60001b611e4a565b60000160006101000a81548173ffffffffffffffffffffffffffffffffffffffff021916908373ffffffffffffffffffffffffffffffffffffffff16021790555050565b60606000808473ffffffffffffffffffffffffffffffffffffffff1684604051611f4b91906129e8565b600060405180830381855af49150503d8060008114611f86576040519150601f19603f3d011682016040523d82523d6000602084013e611f8b565b606091505b5091509150611f9b858383612002565b9250505092915050565b6000341115611fe0576040517fb398979f00000000000000000000000000000000000000000000000000000000815260040160405180910390fd5b565b6000611fec611c44565b60000160089054906101000a900460ff16905090565b6060826120175761201282612091565b612089565b6000825114801561203f575060008473ffffffffffffffffffffffffffffffffffffffff163b145b1561208157836040517f9996b315000000000000000000000000000000000000000000000000000000008152600401612078919061261b565b60405180910390fd5b81905061208a565b5b9392505050565b6000815111156120a45780518082602001fd5b6040517f1425ea4200000000000000000000000000000000000000000000000000000000815260040160405180910390fd5b6000604051905090565b600080fd5b600080fd5b600073ffffffffffffffffffffffffffffffffffffffff82169050919050565b6000612115826120ea565b9050919050565b6121258161210a565b811461213057600080fd5b50565b6000813590506121428161211c565b92915050565b6000819050919050565b61215b81612148565b811461216657600080fd5b50565b60008135905061217881612152565b92915050565b600080fd5b600080fd5b600080fd5b60008083601f8401126121a3576121a261217e565b5b8235905067ffffffffffffffff8111156121c0576121bf612183565b5b6020830191508360018202830111156121dc576121db612188565b5b9250929050565b6000806000806000608086880312156121ff576121fe6120e0565b5b600061220d88828901612133565b955050602061221e88828901612133565b945050604061222f88828901612169565b935050606086013567ffffffffffffffff8111156122505761224f6120e5565b5b61225c8882890161218d565b92509250509295509295909350565b60007fffffffff0000000000000000000000000000000000000000000000000000000082169050919050565b6122a08161226b565b82525050565b60006020820190506122bb6000830184612297565b92915050565b6000602082840312156122d7576122d66120e0565b5b60006122e584828501612169565b91505092915050565b6122f78161210a565b82525050565b61230681612148565b82525050565b600060408201905061232160008301856122ee565b61232e60208301846122fd565b9392505050565b6000806040838503121561234c5761234b6120e0565b5b600061235a85828601612133565b925050602061236b85828601612169565b9150509250929050565b600060208201905061238a60008301846122fd565b92915050565b600080604083850312156123a7576123a66120e0565b5b60006123b585828601612169565b92505060206123c685828601612169565b9150509250929050565b6000819050919050565b60006123f56123f06123eb846120ea565b6123d0565b6120ea565b9050919050565b6000612407826123da565b9050919050565b6000612419826123fc565b9050919050565b6124298161240e565b82525050565b60006020820190506124446000830184612420565b92915050565b600080fd5b6000601f19601f8301169050919050565b7f4e487b7100000000000000000000000000000000000000000000000000000000600052604160045260246000fd5b6124988261244f565b810181811067ffffffffffffffff821117156124b7576124b6612460565b5b80604052505050565b60006124ca6120d6565b90506124d6828261248f565b919050565b600067ffffffffffffffff8211156124f6576124f5612460565b5b6124ff8261244f565b9050602081019050919050565b82818337600083830152505050565b600061252e612529846124db565b6124c0565b90508281526020810184848401111561254a5761254961244a565b5b61255584828561250c565b509392505050565b600082601f8301126125725761257161217e565b5b813561258284826020860161251b565b91505092915050565b600080604083850312156125a2576125a16120e0565b5b60006125b085828601612133565b925050602083013567ffffffffffffffff8111156125d1576125d06120e5565b5b6125dd8582860161255d565b9150509250929050565b6000819050919050565b6125fa816125e7565b82525050565b600060208201905061261560008301846125f1565b92915050565b600060208201905061263060008301846122ee565b92915050565b600081519050919050565b600082825260208201905092915050565b60005b83811015612670578082015181840152602081019050612655565b60008484015250505050565b600061268782612636565b6126918185612641565b93506126a1818560208601612652565b6126aa8161244f565b840191505092915050565b600060208201905081810360008301526126cf818461267c565b905092915050565b6000602082840312156126ed576126ec6120e0565b5b60006126fb84828501612133565b91505092915050565b6000815190506127138161211c565b92915050565b60006020828403121561272f5761272e6120e0565b5b600061273d84828501612704565b91505092915050565b600060608201905061275b60008301866122ee565b61276860208301856122ee565b61277560408301846122fd565b949350505050565b7f4e487b7100000000000000000000000000000000000000000000000000000000600052601160045260246000fd5b60006127b782612148565b9150600082036127ca576127c961277d565b5b600182039050919050565b60006127e082612148565b91507fffffffffffffffffffffffffffffffffffffffffffffffffffffffffffffffff82036128125761281161277d565b5b600182019050919050565b6000819050919050565b600067ffffffffffffffff82169050919050565b600061285661285161284c8461281d565b6123d0565b612827565b9050919050565b6128668161283b565b82525050565b6000602082019050612881600083018461285d565b92915050565b600060408201905061289c60008301856122fd565b6128a960208301846122fd565b9392505050565b600081905092915050565b50565b60006128cb6000836128b0565b91506128d6826128bb565b600082019050919050565b60006128ec826128be565b9150819050919050565b600060408201905061290b60008301856122fd565b61291860208301846122ee565b9392505050565b600061292a82612148565b915061293583612148565b925082820390508181111561294d5761294c61277d565b5b92915050565b61295c816125e7565b811461296757600080fd5b50565b60008151905061297981612953565b92915050565b600060208284031215612995576129946120e0565b5b60006129a38482850161296a565b91505092915050565b600081519050919050565b60006129c2826129ac565b6129cc81856128b0565b93506129dc818560208601612652565b80840191505092915050565b60006129f482846129b7565b91508190509291505056fea2646970667358221220c49fa25a95c26f8761d969a1901b4e4b1ececb925639379ffe358c447b56249e64736f6c63430008140033",
  "devdoc": {
    "errors": {
      "AddressEmptyCode(address)": [
        {
          "details": "There's no code at `target` (it is not a contract)."
        }
      ],
      "ERC1967InvalidImplementation(address)": [
        {
          "details": "The `implementation` of the proxy is invalid."
        }
      ],
      "ERC1967NonPayable()": [
        {
          "details": "An upgrade function sees `msg.value > 0` that may be lost."
        }
      ],
      "FailedInnerCall()": [
        {
          "details": "A call to an address target failed. The target may have reverted."
        }
      ],
      "InvalidInitialization()": [
        {
          "details": "The contract is already initialized."
        }
      ],
      "NotInitializing()": [
        {
          "details": "The contract is not initializing."
        }
      ],
      "OwnableInvalidOwner(address)": [
        {
          "details": "The owner is not a valid owner account. (eg. `address(0)`)"
        }
      ],
      "OwnableUnauthorizedAccount(address)": [
        {
          "details": "The caller account is not authorized to perform an operation."
        }
      ],
      "UUPSUnauthorizedCallContext()": [
        {
          "details": "The call is from an unauthorized context."
        }
      ],
      "UUPSUnsupportedProxiableUUID(bytes32)": [
        {
          "details": "The storage `slot` is unsupported as a UUID."
        }
      ]
    },
    "events": {
      "Initialized(uint64)": {
        "details": "Triggered when the contract has been initialized or reinitialized."
      },
      "Upgraded(address)": {
        "details": "Emitted when the implementation is upgraded."
      }
    },
    "kind": "dev",
    "methods": {
      "owner()": {
        "details": "Returns the address of the current owner."
      },
      "proxiableUUID()": {
        "details": "Implementation of the ERC1822 {proxiableUUID} function. This returns the storage slot used by the implementation. It is used to validate the implementation's compatibility when performing an upgrade. IMPORTANT: A proxy pointing at a proxiable contract should not be considered proxiable itself, because this risks bricking a proxy that upgrades to it, by delegating to itself until out of gas. Thus it is critical that this function revert if invoked through a proxy. This is guaranteed by the `notDelegated` modifier."
      },
      "renounceOwnership()": {
        "details": "Leaves the contract without owner. It will not be possible to call `onlyOwner` functions. Can only be called by the current owner. NOTE: Renouncing ownership will leave the contract without an owner, thereby disabling any functionality that is only available to the owner."
      },
      "transferOwnership(address)": {
        "details": "Transfers ownership of the contract to a new account (`newOwner`). Can only be called by the current owner."
      },
      "upgradeToAndCall(address,bytes)": {
        "custom:oz-upgrades-unsafe-allow-reachable": "delegatecall",
        "details": "Upgrade the implementation of the proxy to `newImplementation`, and subsequently execute the function call encoded in `data`. Calls {_authorizeUpgrade}. Emits an {Upgraded} event."
      }
    },
    "version": 1
  },
  "userdoc": {
    "kind": "user",
    "methods": {},
    "version": 1
  },
  "storageLayout": {
    "storage": [
      {
        "astId": 1603,
        "contract": "contracts/SwapNFT.sol:SwapNFT",
        "label": "orderMap",
        "offset": 0,
        "slot": "0",
        "type": "t_mapping(t_uint256,t_struct(Order)1595_storage)"
      },
      {
        "astId": 1609,
        "contract": "contracts/SwapNFT.sol:SwapNFT",
        "label": "_ownedTokens",
        "offset": 0,
        "slot": "1",
        "type": "t_mapping(t_address,t_mapping(t_uint256,t_uint256))"
      },
      {
        "astId": 1613,
        "contract": "contracts/SwapNFT.sol:SwapNFT",
        "label": "_ownedTokensIndex",
        "offset": 0,
        "slot": "2",
        "type": "t_mapping(t_uint256,t_uint256)"
      },
      {
        "astId": 1617,
        "contract": "contracts/SwapNFT.sol:SwapNFT",
        "label": "ownerBalance",
        "offset": 0,
        "slot": "3",
        "type": "t_mapping(t_address,t_uint256)"
      }
    ],
    "types": {
      "t_address": {
        "encoding": "inplace",
        "label": "address",
        "numberOfBytes": "20"
      },
      "t_mapping(t_address,t_mapping(t_uint256,t_uint256))": {
        "encoding": "mapping",
        "key": "t_address",
        "label": "mapping(address => mapping(uint256 => uint256))",
        "numberOfBytes": "32",
        "value": "t_mapping(t_uint256,t_uint256)"
      },
      "t_mapping(t_address,t_uint256)": {
        "encoding": "mapping",
        "key": "t_address",
        "label": "mapping(address => uint256)",
        "numberOfBytes": "32",
        "value": "t_uint256"
      },
      "t_mapping(t_uint256,t_struct(Order)1595_storage)": {
        "encoding": "mapping",
        "key": "t_uint256",
        "label": "mapping(uint256 => struct SwapNFT.Order)",
        "numberOfBytes": "32",
        "value": "t_struct(Order)1595_storage"
      },
      "t_mapping(t_uint256,t_uint256)": {
        "encoding": "mapping",
        "key": "t_uint256",
        "label": "mapping(uint256 => uint256)",
        "numberOfBytes": "32",
        "value": "t_uint256"
      },
      "t_struct(Order)1595_storage": {
        "encoding": "inplace",
        "label": "struct SwapNFT.Order",
        "members": [
          {
            "astId": 1592,
            "contract": "contracts/SwapNFT.sol:SwapNFT",
            "label": "owner",
            "offset": 0,
            "slot": "0",
            "type": "t_address"
          },
          {
            "astId": 1594,
            "contract": "contracts/SwapNFT.sol:SwapNFT",
            "label": "price",
            "offset": 0,
            "slot": "1",
            "type": "t_uint256"
          }
        ],
        "numberOfBytes": "64"
      },
      "t_uint256": {
        "encoding": "inplace",
        "label": "uint256",
        "numberOfBytes": "32"
      }
    }
  }
}